{
  "transactions": [
    {
      "hash": "0x1ee2c426d5b6bb2a37233374dce79f93898900ba65e5fbd7d5f7d8f679f8e060",
      "transactionType": "CREATE",
      "contractName": "NonCustodialFlashLoans",
      "contractAddress": "0x5D58879007BbBC0D3D20C0408dA2ada7b5F5bB10",
      "function": null,
      "arguments": null,
      "transaction": {
        "type": "0x02",
        "from": "0x31b056ce60875842bb2fe3c3dc1bc9685d518cde",
        "gas": "0x7c144",
        "value": "0x0",
        "data": "0x6080604052600160005534801561001557600080fd5b506105bb806100256000396000f3fe608060405234801561001057600080fd5b50600436106100365760003560e01c8063dfab6ef91461003b578063e5cd487f14610045575b600080fd5b610043610058565b005b6100436100533660046104b3565b610298565b6000546001146100af5760405162461bcd60e51b815260206004820152600a60248201527f5245454e5452414e43590000000000000000000000000000000000000000000060448201526064015b60405180910390fd5b600260009081556001805473ffffffffffffffffffffffffffffffffffffffff191633908117909155604080517fbe9a65550000000000000000000000000000000000000000000000000000000081529051919263be9a65559260048084019382900301818387803b15801561012457600080fd5b505af1158015610138573d6000803e3d6000fd5b5050505060005b6002548110156102905760006002828154811061015e5761015e610506565b600091825260209182902060408051606081018252600393909302909101805480845260018201546001600160a01b0390811695850186905260029092015490911683830181905291516370a0823160e01b8152600481019490945291935090916370a0823190602401602060405180830381865afa1580156101e5573d6000803e3d6000fd5b505050506040513d601f19601f82011682018060405250810190610209919061051c565b101561027d5760405162461bcd60e51b815260206004820152602f60248201527f596f75206d75737420706179206261636b2074686520706572736f6e20796f7560448201527f20626f72726f7765642066726f6d21000000000000000000000000000000000060648201526084016100a6565b508061028881610535565b91505061013f565b506001600055565b6001546001600160a01b031633146103185760405162461bcd60e51b815260206004820152603360248201527f4d7573742062652063616c6c65642066726f6d2077697468696e20746865204960448201527f537461727443616c6c6261636b2373746172740000000000000000000000000060648201526084016100a6565b6040805160608101918290526370a0823160e01b9091526001600160a01b03858116606483015260029190819086166370a0823160848301602060405180830381865afa15801561036d573d6000803e3d6000fd5b505050506040513d601f19601f82011682018060405250810190610391919061051c565b81526001600160a01b0387811660208084018290528883166040948501819052865460018082018955600098895297839020875160039092020190815591860151968201805497851673ffffffffffffffffffffffffffffffffffffffff199889161790559484015160029091018054918416919096161790945590517f23b872dd00000000000000000000000000000000000000000000000000000000815260048101939093528316602483015260448201849052906323b872dd906064016020604051808303816000875af1158015610470573d6000803e3d6000fd5b505050506040513d601f19601f82011682018060405250810190610494919061055c565b5050505050565b6001600160a01b03811681146104b057600080fd5b50565b600080600080608085870312156104c957600080fd5b84356104d48161049b565b935060208501356104e48161049b565b92506040850135915060608501356104fb8161049b565b939692955090935050565b634e487b7160e01b600052603260045260246000fd5b60006020828403121561052e57600080fd5b5051919050565b60006001820161055557634e487b7160e01b600052601160045260246000fd5b5060010190565b60006020828403121561056e57600080fd5b8151801515811461057e57600080fd5b939250505056fea26469706673582212204c2231ab39bde50427bd6a5c4eaf7750df7f6b4b9fe84ccdfa1fe3fd0043ec5264736f6c63430008110033",
        "nonce": "0x1b",
        "accessList": []
      },
      "additionalContracts": []
    },
    {
      "hash": "0x2f8dc6deb407f9519f511acdbb52a7fef4fc833a9a3503e5a7889222cffb33a7",
      "transactionType": "CREATE",
      "contractName": "MockERC20",
      "contractAddress": "0xB366613e8E89D5520F0B9AD397Ce3C0FEa0C94bb",
      "function": null,
      "arguments": null,
      "transaction": {
        "type": "0x02",
        "from": "0x31b056ce60875842bb2fe3c3dc1bc9685d518cde",
        "gas": "0xf4462",
        "value": "0x0",
        "data": "0x60e06040523480156200001157600080fd5b50604051806040016040528060048152602001634d4f434b60e01b815250604051806040016040528060048152602001634d6f636b60e01b815250601282600090816200005f9190620001d2565b5060016200006e8382620001d2565b5060ff81166080524660a0526200008462000091565b60c052506200031c915050565b60007f8b73c3c69bb8fe3d512ecc4cf759cc79239f7b179b0ffacaa9a75d522b39400f6000604051620000c591906200029e565b6040805191829003822060208301939093528101919091527fc89efdaa54c0f20c7adf612882df0950f5a951637e0307cdcb4c672f298b8bc660608201524660808201523060a082015260c00160405160208183030381529060405280519060200120905090565b634e487b7160e01b600052604160045260246000fd5b600181811c908216806200015857607f821691505b6020821081036200017957634e487b7160e01b600052602260045260246000fd5b50919050565b601f821115620001cd57600081815260208120601f850160051c81016020861015620001a85750805b601f850160051c820191505b81811015620001c957828155600101620001b4565b5050505b505050565b81516001600160401b03811115620001ee57620001ee6200012d565b6200020681620001ff845462000143565b846200017f565b602080601f8311600181146200023e5760008415620002255750858301515b600019600386901b1c1916600185901b178555620001c9565b600085815260208120601f198616915b828110156200026f578886015182559484019460019091019084016200024e565b50858210156200028e5787850151600019600388901b60f8161c191681555b5050505050600190811b01905550565b6000808354620002ae8162000143565b60018281168015620002c95760018114620002df5762000310565b60ff198416875282151583028701945062000310565b8760005260208060002060005b85811015620003075781548a820152908401908201620002ec565b50505082870194505b50929695505050505050565b60805160a05160c051610bf06200034c60003960006104820152600061044d0152600061015f0152610bf06000f3fe608060405234801561001057600080fd5b50600436106100ea5760003560e01c80636545964f1161008c57806395d89b411161006657806395d89b4114610203578063a9059cbb1461020b578063d505accf1461021e578063dd62ed3e1461023157600080fd5b80636545964f146101b057806370a08231146101c35780637ecebe00146101e357600080fd5b806323b872dd116100c857806323b872dd14610147578063313ce5671461015a5780633644e5151461019357806340c10f191461019b57600080fd5b806306fdde03146100ef578063095ea7b31461010d57806318160ddd14610130575b600080fd5b6100f761025c565b604051610104919061090d565b60405180910390f35b61012061011b366004610977565b6102ea565b6040519015158152602001610104565b61013960025481565b604051908152602001610104565b6101206101553660046109a1565b610357565b6101817f000000000000000000000000000000000000000000000000000000000000000081565b60405160ff9091168152602001610104565b610139610449565b6101ae6101a9366004610977565b6104a4565b005b6101ae6101be3660046109dd565b6104b2565b6101396101d1366004610a10565b60036020526000908152604090205481565b6101396101f1366004610a10565b60056020526000908152604090205481565b6100f7610517565b610120610219366004610977565b610524565b6101ae61022c366004610a32565b61059c565b61013961023f3660046109dd565b600460209081526000928352604080842090915290825290205481565b6000805461026990610aa5565b80601f016020809104026020016040519081016040528092919081815260200182805461029590610aa5565b80156102e25780601f106102b7576101008083540402835291602001916102e2565b820191906000526020600020905b8154815290600101906020018083116102c557829003601f168201915b505050505081565b3360008181526004602090815260408083206001600160a01b038716808552925280832085905551919290917f8c5be1e5ebec7d5bd14f71427d1e84f3dd0314c0f7b2291e5b200ac8c7c3b925906103459086815260200190565b60405180910390a35060015b92915050565b6001600160a01b038316600090815260046020908152604080832033845290915281205460001981146103b35761038e8382610af5565b6001600160a01b03861660009081526004602090815260408083203384529091529020555b6001600160a01b038516600090815260036020526040812080548592906103db908490610af5565b90915550506001600160a01b03808516600081815260036020526040908190208054870190555190918716907fddf252ad1be2c89b69c2b068fc378daa952ba7f163c4a11628f55a4df523b3ef906104369087815260200190565b60405180910390a3506001949350505050565b60007f0000000000000000000000000000000000000000000000000000000000000000461461047f5761047a61080f565b905090565b507f000000000000000000000000000000000000000000000000000000000000000090565b6104ae82826108a9565b5050565b6001600160a01b038281166000818152600460209081526040808320948616808452948252918290206000199081905591519182527f8c5be1e5ebec7d5bd14f71427d1e84f3dd0314c0f7b2291e5b200ac8c7c3b92591015b60405180910390a35050565b6001805461026990610aa5565b33600090815260036020526040812080548391908390610545908490610af5565b90915550506001600160a01b038316600081815260036020526040908190208054850190555133907fddf252ad1be2c89b69c2b068fc378daa952ba7f163c4a11628f55a4df523b3ef906103459086815260200190565b428410156105f15760405162461bcd60e51b815260206004820152601760248201527f5045524d49545f444541444c494e455f4558504952454400000000000000000060448201526064015b60405180910390fd5b600060016105fd610449565b6001600160a01b038a811660008181526005602090815260409182902080546001810190915582517f6e71edae12b1b97f4d1f60370fef10105fa2faae0126114a169c64845d6126c98184015280840194909452938d166060840152608083018c905260a083019390935260c08083018b90528151808403909101815260e0830190915280519201919091207f19010000000000000000000000000000000000000000000000000000000000006101008301526101028201929092526101228101919091526101420160408051601f198184030181528282528051602091820120600084529083018083525260ff871690820152606081018590526080810184905260a0016020604051602081039080840390855afa158015610724573d6000803e3d6000fd5b5050604051601f1901519150506001600160a01b0381161580159061075a5750876001600160a01b0316816001600160a01b0316145b6107a65760405162461bcd60e51b815260206004820152600e60248201527f494e56414c49445f5349474e455200000000000000000000000000000000000060448201526064016105e8565b6001600160a01b0390811660009081526004602090815260408083208a8516808552908352928190208990555188815291928a16917f8c5be1e5ebec7d5bd14f71427d1e84f3dd0314c0f7b2291e5b200ac8c7c3b925910160405180910390a350505050505050565b60007f8b73c3c69bb8fe3d512ecc4cf759cc79239f7b179b0ffacaa9a75d522b39400f60006040516108419190610b08565b6040805191829003822060208301939093528101919091527fc89efdaa54c0f20c7adf612882df0950f5a951637e0307cdcb4c672f298b8bc660608201524660808201523060a082015260c00160405160208183030381529060405280519060200120905090565b80600260008282546108bb9190610ba7565b90915550506001600160a01b0382166000818152600360209081526040808320805486019055518481527fddf252ad1be2c89b69c2b068fc378daa952ba7f163c4a11628f55a4df523b3ef910161050b565b600060208083528351808285015260005b8181101561093a5785810183015185820160400152820161091e565b506000604082860101526040601f19601f8301168501019250505092915050565b80356001600160a01b038116811461097257600080fd5b919050565b6000806040838503121561098a57600080fd5b6109938361095b565b946020939093013593505050565b6000806000606084860312156109b657600080fd5b6109bf8461095b565b92506109cd6020850161095b565b9150604084013590509250925092565b600080604083850312156109f057600080fd5b6109f98361095b565b9150610a076020840161095b565b90509250929050565b600060208284031215610a2257600080fd5b610a2b8261095b565b9392505050565b600080600080600080600060e0888a031215610a4d57600080fd5b610a568861095b565b9650610a646020890161095b565b95506040880135945060608801359350608088013560ff81168114610a8857600080fd5b9699959850939692959460a0840135945060c09093013592915050565b600181811c90821680610ab957607f821691505b602082108103610ad957634e487b7160e01b600052602260045260246000fd5b50919050565b634e487b7160e01b600052601160045260246000fd5b8181038181111561035157610351610adf565b600080835481600182811c915080831680610b2457607f831692505b60208084108203610b4357634e487b7160e01b86526022600452602486fd5b818015610b575760018114610b6c57610b99565b60ff1986168952841515850289019650610b99565b60008a81526020902060005b86811015610b915781548b820152908501908301610b78565b505084890196505b509498975050505050505050565b8082018082111561035157610351610adf56fea264697066735822122047cee36182b46e2c587053f0c97c7bb042c2c0cc79525dda42f52bb965b1471564736f6c63430008110033",
        "nonce": "0x1c",
        "accessList": []
      },
      "additionalContracts": []
    },
    {
      "hash": "0x8742d5e73765b63b6d251f412af8b4df3c17a04aabe7cc8cc857aef1dbc15229",
      "transactionType": "CALL",
      "contractName": "MockERC20",
      "contractAddress": "0xB366613e8E89D5520F0B9AD397Ce3C0FEa0C94bb",
      "function": "mint(address,uint256)",
      "arguments": [
        "0x0000000000000000000000000000000000000001",
        "1000000000000000000"
      ],
      "transaction": {
        "type": "0x02",
        "from": "0x31b056ce60875842bb2fe3c3dc1bc9685d518cde",
        "to": "0xb366613e8e89d5520f0b9ad397ce3c0fea0c94bb",
        "gas": "0x16f4f",
        "value": "0x0",
        "data": "0x40c10f1900000000000000000000000000000000000000000000000000000000000000010000000000000000000000000000000000000000000000000de0b6b3a7640000",
        "nonce": "0x1d",
        "accessList": []
      },
      "additionalContracts": []
    },
    {
      "hash": "0xc5ddef79906cc4968cd1b08f8dbd1547884766786b9f498b753f0783e2af0dd9",
      "transactionType": "CALL",
      "contractName": "MockERC20",
      "contractAddress": "0xB366613e8E89D5520F0B9AD397Ce3C0FEa0C94bb",
      "function": "forceApprove(address,address)",
      "arguments": [
        "0x0000000000000000000000000000000000000001",
        "0x5D58879007BbBC0D3D20C0408dA2ada7b5F5bB10"
      ],
      "transaction": {
        "type": "0x02",
        "from": "0x31b056ce60875842bb2fe3c3dc1bc9685d518cde",
        "to": "0xb366613e8e89d5520f0b9ad397ce3c0fea0c94bb",
        "gas": "0xf8bf",
        "value": "0x0",
        "data": "0x6545964f00000000000000000000000000000000000000000000000000000000000000010000000000000000000000005d58879007bbbc0d3d20c0408da2ada7b5f5bb10",
        "nonce": "0x1e",
        "accessList": []
      },
      "additionalContracts": []
    },
    {
      "hash": "0xc4bff3854fe0a0db1fb80bb643f442b91388b84361608918470d189ca44707d0",
      "transactionType": "CALL",
      "contractName": "MockERC20",
      "contractAddress": "0xB366613e8E89D5520F0B9AD397Ce3C0FEa0C94bb",
      "function": "mint(address,uint256)",
      "arguments": [
        "0x0000000000000000000000000000000000000002",
        "1000000000000000000"
      ],
      "transaction": {
        "type": "0x02",
        "from": "0x31b056ce60875842bb2fe3c3dc1bc9685d518cde",
        "to": "0xb366613e8e89d5520f0b9ad397ce3c0fea0c94bb",
        "gas": "0x1233b",
        "value": "0x0",
        "data": "0x40c10f1900000000000000000000000000000000000000000000000000000000000000020000000000000000000000000000000000000000000000000de0b6b3a7640000",
        "nonce": "0x1f",
        "accessList": []
      },
      "additionalContracts": []
    },
    {
      "hash": "0x76defdc515fab771dc2e4eed0725561c3e4b5de7a03411277b24f6e3dc913271",
      "transactionType": "CALL",
      "contractName": "MockERC20",
      "contractAddress": "0xB366613e8E89D5520F0B9AD397Ce3C0FEa0C94bb",
      "function": "forceApprove(address,address)",
      "arguments": [
        "0x0000000000000000000000000000000000000002",
        "0x5D58879007BbBC0D3D20C0408dA2ada7b5F5bB10"
      ],
      "transaction": {
        "type": "0x02",
        "from": "0x31b056ce60875842bb2fe3c3dc1bc9685d518cde",
        "to": "0xb366613e8e89d5520f0b9ad397ce3c0fea0c94bb",
        "gas": "0xf8bf",
        "value": "0x0",
        "data": "0x6545964f00000000000000000000000000000000000000000000000000000000000000020000000000000000000000005d58879007bbbc0d3d20c0408da2ada7b5f5bb10",
        "nonce": "0x20",
        "accessList": []
      },
      "additionalContracts": []
    },
    {
      "hash": "0xcb275dc4ffe9ec35cfa2f759f8586de5753a269470198ebdcfbd8923fb34bc4d",
      "transactionType": "CALL",
      "contractName": "MockERC20",
      "contractAddress": "0xB366613e8E89D5520F0B9AD397Ce3C0FEa0C94bb",
      "function": "mint(address,uint256)",
      "arguments": [
        "0x0000000000000000000000000000000000000003",
        "1000000000000000000"
      ],
      "transaction": {
        "type": "0x02",
        "from": "0x31b056ce60875842bb2fe3c3dc1bc9685d518cde",
        "to": "0xb366613e8e89d5520f0b9ad397ce3c0fea0c94bb",
        "gas": "0x1233b",
        "value": "0x0",
        "data": "0x40c10f1900000000000000000000000000000000000000000000000000000000000000030000000000000000000000000000000000000000000000000de0b6b3a7640000",
        "nonce": "0x21",
        "accessList": []
      },
      "additionalContracts": []
    },
    {
      "hash": "0x21df7fc1404b492ae07e0912ce9b4dfdf70fa88a0a20210883988967f0dfaeca",
      "transactionType": "CALL",
      "contractName": "MockERC20",
      "contractAddress": "0xB366613e8E89D5520F0B9AD397Ce3C0FEa0C94bb",
      "function": "forceApprove(address,address)",
      "arguments": [
        "0x0000000000000000000000000000000000000003",
        "0x5D58879007BbBC0D3D20C0408dA2ada7b5F5bB10"
      ],
      "transaction": {
        "type": "0x02",
        "from": "0x31b056ce60875842bb2fe3c3dc1bc9685d518cde",
        "to": "0xb366613e8e89d5520f0b9ad397ce3c0fea0c94bb",
        "gas": "0xf8bf",
        "value": "0x0",
        "data": "0x6545964f00000000000000000000000000000000000000000000000000000000000000030000000000000000000000005d58879007bbbc0d3d20c0408da2ada7b5f5bb10",
        "nonce": "0x22",
        "accessList": []
      },
      "additionalContracts": []
    },
    {
      "hash": "0x105a7094c91d0a64d1177d3a85f55eba55108737944f3d75354548c1a3a56af0",
      "transactionType": "CALL",
      "contractName": "MockERC20",
      "contractAddress": "0xB366613e8E89D5520F0B9AD397Ce3C0FEa0C94bb",
      "function": "mint(address,uint256)",
      "arguments": [
        "0x0000000000000000000000000000000000000004",
        "1000000000000000000"
      ],
      "transaction": {
        "type": "0x02",
        "from": "0x31b056ce60875842bb2fe3c3dc1bc9685d518cde",
        "to": "0xb366613e8e89d5520f0b9ad397ce3c0fea0c94bb",
        "gas": "0x1233b",
        "value": "0x0",
        "data": "0x40c10f1900000000000000000000000000000000000000000000000000000000000000040000000000000000000000000000000000000000000000000de0b6b3a7640000",
        "nonce": "0x23",
        "accessList": []
      },
      "additionalContracts": []
    },
    {
      "hash": "0x77364b84725039e26046d11f7de91bcc03639cbd4a65443db4df65c7a3a12b5f",
      "transactionType": "CALL",
      "contractName": "MockERC20",
      "contractAddress": "0xB366613e8E89D5520F0B9AD397Ce3C0FEa0C94bb",
      "function": "forceApprove(address,address)",
      "arguments": [
        "0x0000000000000000000000000000000000000004",
        "0x5D58879007BbBC0D3D20C0408dA2ada7b5F5bB10"
      ],
      "transaction": {
        "type": "0x02",
        "from": "0x31b056ce60875842bb2fe3c3dc1bc9685d518cde",
        "to": "0xb366613e8e89d5520f0b9ad397ce3c0fea0c94bb",
        "gas": "0xf8bf",
        "value": "0x0",
        "data": "0x6545964f00000000000000000000000000000000000000000000000000000000000000040000000000000000000000005d58879007bbbc0d3d20c0408da2ada7b5f5bb10",
        "nonce": "0x24",
        "accessList": []
      },
      "additionalContracts": []
    },
    {
      "hash": "0x323743d6456de3bcc1e9f7fba5c4768d1f3abbb3c70b34207e04a50f32fb3a22",
      "transactionType": "CALL",
      "contractName": "MockERC20",
      "contractAddress": "0xB366613e8E89D5520F0B9AD397Ce3C0FEa0C94bb",
      "function": "mint(address,uint256)",
      "arguments": [
        "0x0000000000000000000000000000000000000005",
        "1000000000000000000"
      ],
      "transaction": {
        "type": "0x02",
        "from": "0x31b056ce60875842bb2fe3c3dc1bc9685d518cde",
        "to": "0xb366613e8e89d5520f0b9ad397ce3c0fea0c94bb",
        "gas": "0x1233b",
        "value": "0x0",
        "data": "0x40c10f1900000000000000000000000000000000000000000000000000000000000000050000000000000000000000000000000000000000000000000de0b6b3a7640000",
        "nonce": "0x25",
        "accessList": []
      },
      "additionalContracts": []
    },
    {
      "hash": "0x7220a69e6df8b53d3654ca85cfda99a04c4b74a26ce5f674ff4d995cf1f1ff97",
      "transactionType": "CALL",
      "contractName": "MockERC20",
      "contractAddress": "0xB366613e8E89D5520F0B9AD397Ce3C0FEa0C94bb",
      "function": "forceApprove(address,address)",
      "arguments": [
        "0x0000000000000000000000000000000000000005",
        "0x5D58879007BbBC0D3D20C0408dA2ada7b5F5bB10"
      ],
      "transaction": {
        "type": "0x02",
        "from": "0x31b056ce60875842bb2fe3c3dc1bc9685d518cde",
        "to": "0xb366613e8e89d5520f0b9ad397ce3c0fea0c94bb",
        "gas": "0xf8bf",
        "value": "0x0",
        "data": "0x6545964f00000000000000000000000000000000000000000000000000000000000000050000000000000000000000005d58879007bbbc0d3d20c0408da2ada7b5f5bb10",
        "nonce": "0x26",
        "accessList": []
      },
      "additionalContracts": []
    },
    {
      "hash": "0x3a3441b515f2b79478ec20fbbade6dcc1eee3da230401e063ee74efdf294d661",
      "transactionType": "CALL",
      "contractName": "MockERC20",
      "contractAddress": "0xB366613e8E89D5520F0B9AD397Ce3C0FEa0C94bb",
      "function": "mint(address,uint256)",
      "arguments": [
        "0x0000000000000000000000000000000000000006",
        "1000000000000000000"
      ],
      "transaction": {
        "type": "0x02",
        "from": "0x31b056ce60875842bb2fe3c3dc1bc9685d518cde",
        "to": "0xb366613e8e89d5520f0b9ad397ce3c0fea0c94bb",
        "gas": "0x1233b",
        "value": "0x0",
        "data": "0x40c10f1900000000000000000000000000000000000000000000000000000000000000060000000000000000000000000000000000000000000000000de0b6b3a7640000",
        "nonce": "0x27",
        "accessList": []
      },
      "additionalContracts": []
    },
    {
      "hash": "0x886e8023c8b39c72e9540c6462a249c9924895bf15048488ed51db6ba34ab8d1",
      "transactionType": "CALL",
      "contractName": "MockERC20",
      "contractAddress": "0xB366613e8E89D5520F0B9AD397Ce3C0FEa0C94bb",
      "function": "forceApprove(address,address)",
      "arguments": [
        "0x0000000000000000000000000000000000000006",
        "0x5D58879007BbBC0D3D20C0408dA2ada7b5F5bB10"
      ],
      "transaction": {
        "type": "0x02",
        "from": "0x31b056ce60875842bb2fe3c3dc1bc9685d518cde",
        "to": "0xb366613e8e89d5520f0b9ad397ce3c0fea0c94bb",
        "gas": "0xf8bf",
        "value": "0x0",
        "data": "0x6545964f00000000000000000000000000000000000000000000000000000000000000060000000000000000000000005d58879007bbbc0d3d20c0408da2ada7b5f5bb10",
        "nonce": "0x28",
        "accessList": []
      },
      "additionalContracts": []
    },
    {
      "hash": "0x397ea8a1a6f862bc18dd171adc83da4305b97e03bbddc5e4a9b06ad14d73af4f",
      "transactionType": "CALL",
      "contractName": "MockERC20",
      "contractAddress": "0xB366613e8E89D5520F0B9AD397Ce3C0FEa0C94bb",
      "function": "mint(address,uint256)",
      "arguments": [
        "0x0000000000000000000000000000000000000007",
        "1000000000000000000"
      ],
      "transaction": {
        "type": "0x02",
        "from": "0x31b056ce60875842bb2fe3c3dc1bc9685d518cde",
        "to": "0xb366613e8e89d5520f0b9ad397ce3c0fea0c94bb",
        "gas": "0x1233b",
        "value": "0x0",
        "data": "0x40c10f1900000000000000000000000000000000000000000000000000000000000000070000000000000000000000000000000000000000000000000de0b6b3a7640000",
        "nonce": "0x29",
        "accessList": []
      },
      "additionalContracts": []
    },
    {
      "hash": "0x72d11d924e402e20cbe4e496341e69a1503686095db0b361765758464aadb7ab",
      "transactionType": "CALL",
      "contractName": "MockERC20",
      "contractAddress": "0xB366613e8E89D5520F0B9AD397Ce3C0FEa0C94bb",
      "function": "forceApprove(address,address)",
      "arguments": [
        "0x0000000000000000000000000000000000000007",
        "0x5D58879007BbBC0D3D20C0408dA2ada7b5F5bB10"
      ],
      "transaction": {
        "type": "0x02",
        "from": "0x31b056ce60875842bb2fe3c3dc1bc9685d518cde",
        "to": "0xb366613e8e89d5520f0b9ad397ce3c0fea0c94bb",
        "gas": "0xf8bf",
        "value": "0x0",
        "data": "0x6545964f00000000000000000000000000000000000000000000000000000000000000070000000000000000000000005d58879007bbbc0d3d20c0408da2ada7b5f5bb10",
        "nonce": "0x2a",
        "accessList": []
      },
      "additionalContracts": []
    },
    {
      "hash": "0xfe9c602721b73094b166f9405f9f46a3d5d236521f8e14a73c0168c584b9424b",
      "transactionType": "CALL",
      "contractName": "MockERC20",
      "contractAddress": "0xB366613e8E89D5520F0B9AD397Ce3C0FEa0C94bb",
      "function": "mint(address,uint256)",
      "arguments": [
        "0x0000000000000000000000000000000000000008",
        "1000000000000000000"
      ],
      "transaction": {
        "type": "0x02",
        "from": "0x31b056ce60875842bb2fe3c3dc1bc9685d518cde",
        "to": "0xb366613e8e89d5520f0b9ad397ce3c0fea0c94bb",
        "gas": "0x1233b",
        "value": "0x0",
        "data": "0x40c10f1900000000000000000000000000000000000000000000000000000000000000080000000000000000000000000000000000000000000000000de0b6b3a7640000",
        "nonce": "0x2b",
        "accessList": []
      },
      "additionalContracts": []
    },
    {
      "hash": "0xf44e45fd32d14db52862440d6e12aeef5a466b0113a30f2ee193023057d2af1f",
      "transactionType": "CALL",
      "contractName": "MockERC20",
      "contractAddress": "0xB366613e8E89D5520F0B9AD397Ce3C0FEa0C94bb",
      "function": "forceApprove(address,address)",
      "arguments": [
        "0x0000000000000000000000000000000000000008",
        "0x5D58879007BbBC0D3D20C0408dA2ada7b5F5bB10"
      ],
      "transaction": {
        "type": "0x02",
        "from": "0x31b056ce60875842bb2fe3c3dc1bc9685d518cde",
        "to": "0xb366613e8e89d5520f0b9ad397ce3c0fea0c94bb",
        "gas": "0xf8bf",
        "value": "0x0",
        "data": "0x6545964f00000000000000000000000000000000000000000000000000000000000000080000000000000000000000005d58879007bbbc0d3d20c0408da2ada7b5f5bb10",
        "nonce": "0x2c",
        "accessList": []
      },
      "additionalContracts": []
    },
    {
      "hash": "0x5d512a0b4f7f9a4321062675662c71b3b099509714f63966ee103c76fbc6f26d",
      "transactionType": "CALL",
      "contractName": "MockERC20",
      "contractAddress": "0xB366613e8E89D5520F0B9AD397Ce3C0FEa0C94bb",
      "function": "mint(address,uint256)",
      "arguments": [
        "0x0000000000000000000000000000000000000009",
        "1000000000000000000"
      ],
      "transaction": {
        "type": "0x02",
        "from": "0x31b056ce60875842bb2fe3c3dc1bc9685d518cde",
        "to": "0xb366613e8e89d5520f0b9ad397ce3c0fea0c94bb",
        "gas": "0x1233b",
        "value": "0x0",
        "data": "0x40c10f1900000000000000000000000000000000000000000000000000000000000000090000000000000000000000000000000000000000000000000de0b6b3a7640000",
        "nonce": "0x2d",
        "accessList": []
      },
      "additionalContracts": []
    },
    {
      "hash": "0x5a74aa49d08109d776c404a5c4a8a43e9736b53e69f3913f509bfeca889386de",
      "transactionType": "CALL",
      "contractName": "MockERC20",
      "contractAddress": "0xB366613e8E89D5520F0B9AD397Ce3C0FEa0C94bb",
      "function": "forceApprove(address,address)",
      "arguments": [
        "0x0000000000000000000000000000000000000009",
        "0x5D58879007BbBC0D3D20C0408dA2ada7b5F5bB10"
      ],
      "transaction": {
        "type": "0x02",
        "from": "0x31b056ce60875842bb2fe3c3dc1bc9685d518cde",
        "to": "0xb366613e8e89d5520f0b9ad397ce3c0fea0c94bb",
        "gas": "0xf8bf",
        "value": "0x0",
        "data": "0x6545964f00000000000000000000000000000000000000000000000000000000000000090000000000000000000000005d58879007bbbc0d3d20c0408da2ada7b5f5bb10",
        "nonce": "0x2e",
        "accessList": []
      },
      "additionalContracts": []
    }
  ],
  "receipts": [
    {
      "transactionHash": "0x1ee2c426d5b6bb2a37233374dce79f93898900ba65e5fbd7d5f7d8f679f8e060",
      "transactionIndex": "0x0",
      "blockHash": "0x379ab029f0544e140e8825931adea7488f4a235eae223277f04d359c982884a9",
      "blockNumber": "0x23",
      "from": "0x31b056cE60875842bb2fE3C3DC1BC9685d518cde",
      "to": null,
      "cumulativeGasUsed": "0x5f721",
      "gasUsed": "0x5f721",
      "contractAddress": "0x5D58879007BbBC0D3D20C0408dA2ada7b5F5bB10",
      "logs": [],
      "status": "0x1",
      "logsBloom": "0x00000000000000000000000000000000000000000000000000000000000000000000000000000000000000000000000000000000000000000000000000000000000000000000000000000000000000000000000000000000000000000000000000000000000000000000000000000000000000000000000000000000000000000000000000000000000000000000000000000000000000000000000000000000000000000000000000000000000000000000000000000000000000000000000000000000000000000000000000000000000000000000000000000000000000000000000000000000000000000000000000000000000000000000000000000000",
      "type": "0x2",
      "effectiveGasPrice": "0xb36edecc"
    },
    {
      "transactionHash": "0x2f8dc6deb407f9519f511acdbb52a7fef4fc833a9a3503e5a7889222cffb33a7",
      "transactionIndex": "0x0",
      "blockHash": "0x6edd5f55f649231f787017b873701d0929e3f5586877a7f12acdc576f6818a5a",
      "blockNumber": "0x24",
      "from": "0x31b056cE60875842bb2fE3C3DC1BC9685d518cde",
      "to": null,
      "cumulativeGasUsed": "0xbbe73",
      "gasUsed": "0xbbe73",
      "contractAddress": "0xB366613e8E89D5520F0B9AD397Ce3C0FEa0C94bb",
      "logs": [],
      "status": "0x1",
      "logsBloom": "0x00000000000000000000000000000000000000000000000000000000000000000000000000000000000000000000000000000000000000000000000000000000000000000000000000000000000000000000000000000000000000000000000000000000000000000000000000000000000000000000000000000000000000000000000000000000000000000000000000000000000000000000000000000000000000000000000000000000000000000000000000000000000000000000000000000000000000000000000000000000000000000000000000000000000000000000000000000000000000000000000000000000000000000000000000000000",
      "type": "0x2",
      "effectiveGasPrice": "0xb35c5bf9"
    },
    {
      "transactionHash": "0x8742d5e73765b63b6d251f412af8b4df3c17a04aabe7cc8cc857aef1dbc15229",
      "transactionIndex": "0x0",
      "blockHash": "0xb1f3b784cdff2111041beff3e4787c0cb5d116517cf63ce4f6151ab5001a9920",
      "blockNumber": "0x25",
      "from": "0x31b056cE60875842bb2fE3C3DC1BC9685d518cde",
      "to": "0xB366613e8E89D5520F0B9AD397Ce3C0FEa0C94bb",
      "cumulativeGasUsed": "0x109ee",
      "gasUsed": "0x109ee",
      "contractAddress": null,
      "logs": [
        {
          "address": "0xB366613e8E89D5520F0B9AD397Ce3C0FEa0C94bb",
          "topics": [
            "0xddf252ad1be2c89b69c2b068fc378daa952ba7f163c4a11628f55a4df523b3ef",
            "0x0000000000000000000000000000000000000000000000000000000000000000",
            "0x0000000000000000000000000000000000000000000000000000000000000001"
          ],
          "data": "0x0000000000000000000000000000000000000000000000000de0b6b3a7640000",
          "blockHash": "0xb1f3b784cdff2111041beff3e4787c0cb5d116517cf63ce4f6151ab5001a9920",
          "blockNumber": "0x25",
          "transactionHash": "0x8742d5e73765b63b6d251f412af8b4df3c17a04aabe7cc8cc857aef1dbc15229",
          "transactionIndex": "0x0",
          "logIndex": "0x0",
          "removed": false
        }
      ],
      "status": "0x1",
      "logsBloom": "0x00000000000000000000000000000000800000000000000000000000000000000000000000000000000000000000000000000000000000000000000000040000000000000000000000000008000000000000000000040000000000000000000000000000020000000000000000000800000000000000000000000010000000000000000000000000000000000000000000000000000000000000000000000000000000000000000000000200000000000000000000000000000000000000000000000002000000000040000000000000000000000000000000000000000060000000000000000000000000000000000000000000000000000000000000000000",
      "type": "0x2",
      "effectiveGasPrice": "0xb34d1f27"
    },
    {
      "transactionHash": "0xc5ddef79906cc4968cd1b08f8dbd1547884766786b9f498b753f0783e2af0dd9",
      "transactionIndex": "0x0",
      "blockHash": "0x4bb3890cf4fbf72870877882195cc441046e4bfa1e36786151f45acb15c41e87",
      "blockNumber": "0x26",
      "from": "0x31b056cE60875842bb2fE3C3DC1BC9685d518cde",
      "to": "0xB366613e8E89D5520F0B9AD397Ce3C0FEa0C94bb",
      "cumulativeGasUsed": "0xb417",
      "gasUsed": "0xb417",
      "contractAddress": null,
      "logs": [
        {
          "address": "0xB366613e8E89D5520F0B9AD397Ce3C0FEa0C94bb",
          "topics": [
            "0x8c5be1e5ebec7d5bd14f71427d1e84f3dd0314c0f7b2291e5b200ac8c7c3b925",
            "0x0000000000000000000000000000000000000000000000000000000000000001",
            "0x0000000000000000000000005d58879007bbbc0d3d20c0408da2ada7b5f5bb10"
          ],
          "data": "0xffffffffffffffffffffffffffffffffffffffffffffffffffffffffffffffff",
          "blockHash": "0x4bb3890cf4fbf72870877882195cc441046e4bfa1e36786151f45acb15c41e87",
          "blockNumber": "0x26",
          "transactionHash": "0xc5ddef79906cc4968cd1b08f8dbd1547884766786b9f498b753f0783e2af0dd9",
          "transactionIndex": "0x0",
          "logIndex": "0x0",
          "removed": false
        }
      ],
      "status": "0x1",
      "logsBloom": "0x02000000000000000000000000000000800000000000000000000000000000000000000000000000000000000000000000000000000000000000000000240000000000000000000000000000000000000000000000040000000000000000000000000000000000000000000000000000000000000000000000000000000000000000000000000000000000000000000000000000000000000000000000000000020000000000000000000200000000000000000000000000000000000000000000000000000000000040000000000000000000000080000000000000000040000010000000000000000000000000000000000000000000000000080000000000",
      "type": "0x2",
      "effectiveGasPrice": "0xb33db499"
    },
    {
      "transactionHash": "0xc4bff3854fe0a0db1fb80bb643f442b91388b84361608918470d189ca44707d0",
      "transactionIndex": "0x1",
      "blockHash": "0x4bb3890cf4fbf72870877882195cc441046e4bfa1e36786151f45acb15c41e87",
      "blockNumber": "0x26",
      "from": "0x31b056cE60875842bb2fE3C3DC1BC9685d518cde",
      "to": "0xB366613e8E89D5520F0B9AD397Ce3C0FEa0C94bb",
      "cumulativeGasUsed": "0x17b39",
      "gasUsed": "0xc722",
      "contractAddress": null,
      "logs": [
        {
          "address": "0xB366613e8E89D5520F0B9AD397Ce3C0FEa0C94bb",
          "topics": [
            "0xddf252ad1be2c89b69c2b068fc378daa952ba7f163c4a11628f55a4df523b3ef",
            "0x0000000000000000000000000000000000000000000000000000000000000000",
            "0x0000000000000000000000000000000000000000000000000000000000000002"
          ],
          "data": "0x0000000000000000000000000000000000000000000000000de0b6b3a7640000",
          "blockHash": "0x4bb3890cf4fbf72870877882195cc441046e4bfa1e36786151f45acb15c41e87",
          "blockNumber": "0x26",
          "transactionHash": "0xc4bff3854fe0a0db1fb80bb643f442b91388b84361608918470d189ca44707d0",
          "transactionIndex": "0x1",
          "logIndex": "0x1",
          "removed": false
        }
      ],
      "status": "0x1",
      "logsBloom": "0x04000000000000000000000000000000800000000000000000000000000000000000000000000000000000000000000000000000000000000000000000000000000000000000000000000008000000000000000000000000000000000000000000000000020000000000000000000800000000000000000000000010000000000000000000000000000000000000000000000000000000000000000000000000000000000000000000000300000000000000000000000000000000000000000000000002000000000040000000000000000000000000000000000000000020000000000000000000000000000000000000000000008000000000000000000000",
      "type": "0x2",
      "effectiveGasPrice": "0xb33db499"
    },
    {
      "transactionHash": "0x76defdc515fab771dc2e4eed0725561c3e4b5de7a03411277b24f6e3dc913271",
      "transactionIndex": "0x2",
      "blockHash": "0x4bb3890cf4fbf72870877882195cc441046e4bfa1e36786151f45acb15c41e87",
      "blockNumber": "0x26",
      "from": "0x31b056cE60875842bb2fE3C3DC1BC9685d518cde",
      "to": "0xB366613e8E89D5520F0B9AD397Ce3C0FEa0C94bb",
      "cumulativeGasUsed": "0x22f50",
      "gasUsed": "0xb417",
      "contractAddress": null,
      "logs": [
        {
          "address": "0xB366613e8E89D5520F0B9AD397Ce3C0FEa0C94bb",
          "topics": [
            "0x8c5be1e5ebec7d5bd14f71427d1e84f3dd0314c0f7b2291e5b200ac8c7c3b925",
            "0x0000000000000000000000000000000000000000000000000000000000000002",
            "0x0000000000000000000000005d58879007bbbc0d3d20c0408da2ada7b5f5bb10"
          ],
          "data": "0xffffffffffffffffffffffffffffffffffffffffffffffffffffffffffffffff",
          "blockHash": "0x4bb3890cf4fbf72870877882195cc441046e4bfa1e36786151f45acb15c41e87",
          "blockNumber": "0x26",
          "transactionHash": "0x76defdc515fab771dc2e4eed0725561c3e4b5de7a03411277b24f6e3dc913271",
          "transactionIndex": "0x2",
          "logIndex": "0x2",
          "removed": false
        }
      ],
      "status": "0x1",
      "logsBloom": "0x06000000000000000000000000000000800000000000000000000000000000000000000000000000000000000000000000000000000000000000000000200000000000000000000000000000000000000000000000000000000000000000000000000000000000000000000000000000000000000000000000000000000000000000000000000000000000000000000000000000000000000000000000000000020000000000000000000300000000000000000000000000000000000000000000000000000000000040000000000000000000000080000000000000000000000010000000000000000000000000000000000000008000000000080000000000",
      "type": "0x2",
      "effectiveGasPrice": "0xb33db499"
    },
    {
      "transactionHash": "0xcb275dc4ffe9ec35cfa2f759f8586de5753a269470198ebdcfbd8923fb34bc4d",
      "transactionIndex": "0x3",
      "blockHash": "0x4bb3890cf4fbf72870877882195cc441046e4bfa1e36786151f45acb15c41e87",
      "blockNumber": "0x26",
      "from": "0x31b056cE60875842bb2fE3C3DC1BC9685d518cde",
      "to": "0xB366613e8E89D5520F0B9AD397Ce3C0FEa0C94bb",
      "cumulativeGasUsed": "0x2f672",
      "gasUsed": "0xc722",
      "contractAddress": null,
      "logs": [
        {
          "address": "0xB366613e8E89D5520F0B9AD397Ce3C0FEa0C94bb",
          "topics": [
            "0xddf252ad1be2c89b69c2b068fc378daa952ba7f163c4a11628f55a4df523b3ef",
            "0x0000000000000000000000000000000000000000000000000000000000000000",
            "0x0000000000000000000000000000000000000000000000000000000000000003"
          ],
          "data": "0x0000000000000000000000000000000000000000000000000de0b6b3a7640000",
          "blockHash": "0x4bb3890cf4fbf72870877882195cc441046e4bfa1e36786151f45acb15c41e87",
          "blockNumber": "0x26",
          "transactionHash": "0xcb275dc4ffe9ec35cfa2f759f8586de5753a269470198ebdcfbd8923fb34bc4d",
          "transactionIndex": "0x3",
          "logIndex": "0x3",
          "removed": false
        }
      ],
      "status": "0x1",
      "logsBloom": "0x00000000000000000000000000000000800000000000000000000000000000000000000000000000000000000000000000000000020000000000000000000000000000000000000000000008000000000000000000000000000000000000000000000000020000000000000000000800000000000000000000000010000000000000000000000000000000000000000000000000000000000000000000000000000000000000000000000200000000000000000000800000000000000000400000000002000000000040000000000000000000000000000000000000000020000000000000000000000000000000000000000000000000000000000000000000",
      "type": "0x2",
      "effectiveGasPrice": "0xb33db499"
    },
    {
      "transactionHash": "0x21df7fc1404b492ae07e0912ce9b4dfdf70fa88a0a20210883988967f0dfaeca",
      "transactionIndex": "0x4",
      "blockHash": "0x4bb3890cf4fbf72870877882195cc441046e4bfa1e36786151f45acb15c41e87",
      "blockNumber": "0x26",
      "from": "0x31b056cE60875842bb2fE3C3DC1BC9685d518cde",
      "to": "0xB366613e8E89D5520F0B9AD397Ce3C0FEa0C94bb",
      "cumulativeGasUsed": "0x3aa89",
      "gasUsed": "0xb417",
      "contractAddress": null,
      "logs": [
        {
          "address": "0xB366613e8E89D5520F0B9AD397Ce3C0FEa0C94bb",
          "topics": [
            "0x8c5be1e5ebec7d5bd14f71427d1e84f3dd0314c0f7b2291e5b200ac8c7c3b925",
            "0x0000000000000000000000000000000000000000000000000000000000000003",
            "0x0000000000000000000000005d58879007bbbc0d3d20c0408da2ada7b5f5bb10"
          ],
          "data": "0xffffffffffffffffffffffffffffffffffffffffffffffffffffffffffffffff",
          "blockHash": "0x4bb3890cf4fbf72870877882195cc441046e4bfa1e36786151f45acb15c41e87",
          "blockNumber": "0x26",
          "transactionHash": "0x21df7fc1404b492ae07e0912ce9b4dfdf70fa88a0a20210883988967f0dfaeca",
          "transactionIndex": "0x4",
          "logIndex": "0x4",
          "removed": false
        }
      ],
      "status": "0x1",
      "logsBloom": "0x02000000000000000000000000000000800000000000000000000000000000000000000000000000000000000000000000000000020000000000000000200000000000000000000000000000000000000000000000000000000000000000000000000000000000000000000000000000000000000000000000000000000000000000000000000000000000000000000000000000000000000000000000000000020000000000000000000200000000000000000000800000000000000000400000000000000000000040000000000000000000000080000000000000000000000010000000000000000000000000000000000000000000000000080000000000",
      "type": "0x2",
      "effectiveGasPrice": "0xb33db499"
    },
    {
      "transactionHash": "0x105a7094c91d0a64d1177d3a85f55eba55108737944f3d75354548c1a3a56af0",
      "transactionIndex": "0x0",
      "blockHash": "0x5622451867240b92f0e2c58b0c9aecf63afe8df01c3850d88cbfe3b28b57d781",
      "blockNumber": "0x27",
      "from": "0x31b056cE60875842bb2fE3C3DC1BC9685d518cde",
      "to": "0xB366613e8E89D5520F0B9AD397Ce3C0FEa0C94bb",
      "cumulativeGasUsed": "0xc722",
      "gasUsed": "0xc722",
      "contractAddress": null,
      "logs": [
        {
          "address": "0xB366613e8E89D5520F0B9AD397Ce3C0FEa0C94bb",
          "topics": [
            "0xddf252ad1be2c89b69c2b068fc378daa952ba7f163c4a11628f55a4df523b3ef",
            "0x0000000000000000000000000000000000000000000000000000000000000000",
            "0x0000000000000000000000000000000000000000000000000000000000000004"
          ],
          "data": "0x0000000000000000000000000000000000000000000000000de0b6b3a7640000",
          "blockHash": "0x5622451867240b92f0e2c58b0c9aecf63afe8df01c3850d88cbfe3b28b57d781",
          "blockNumber": "0x27",
          "transactionHash": "0x105a7094c91d0a64d1177d3a85f55eba55108737944f3d75354548c1a3a56af0",
          "transactionIndex": "0x0",
          "logIndex": "0x0",
          "removed": false
        }
      ],
      "status": "0x1",
      "logsBloom": "0x00000000000000000000000000000000800000000000000000000000000000000000000000000000000000000000000000000000000000000000000000000000000000000000000000000008000000000000000000000000000000000000000008000000020000000000000000000800000000000000000000000010000000000000000000000000000000000000000000000000000000000000000000000000000000000000000000000200000000000000000000000000002000000000000000000002000000000040000000000000000000008000000000000000000020000000000000000000000000000000000000000000000000000000000000000000",
      "type": "0x2",
      "effectiveGasPrice": "0xb33096a7"
    },
    {
      "transactionHash": "0x77364b84725039e26046d11f7de91bcc03639cbd4a65443db4df65c7a3a12b5f",
      "transactionIndex": "0x0",
      "blockHash": "0xb9f1efdfae346e15830268f56f6753a117635066d4a83c5bd835545ae32ef844",
      "blockNumber": "0x28",
      "from": "0x31b056cE60875842bb2fE3C3DC1BC9685d518cde",
      "to": "0xB366613e8E89D5520F0B9AD397Ce3C0FEa0C94bb",
      "cumulativeGasUsed": "0xb417",
      "gasUsed": "0xb417",
      "contractAddress": null,
      "logs": [
        {
          "address": "0xB366613e8E89D5520F0B9AD397Ce3C0FEa0C94bb",
          "topics": [
            "0x8c5be1e5ebec7d5bd14f71427d1e84f3dd0314c0f7b2291e5b200ac8c7c3b925",
            "0x0000000000000000000000000000000000000000000000000000000000000004",
            "0x0000000000000000000000005d58879007bbbc0d3d20c0408da2ada7b5f5bb10"
          ],
          "data": "0xffffffffffffffffffffffffffffffffffffffffffffffffffffffffffffffff",
          "blockHash": "0xb9f1efdfae346e15830268f56f6753a117635066d4a83c5bd835545ae32ef844",
          "blockNumber": "0x28",
          "transactionHash": "0x77364b84725039e26046d11f7de91bcc03639cbd4a65443db4df65c7a3a12b5f",
          "transactionIndex": "0x0",
          "logIndex": "0x0",
          "removed": false
        }
      ],
      "status": "0x1",
      "logsBloom": "0x02000000000000000000000000000000800000000000000000000000000000000000000000000000000000000000000000000000000000000000000000200000000000000000000000000000000000000000000000000000000000000000000008000000000000000000000000000000000000000000000000000000000000000000000000000000000000000000000000000000000000000000000000000000020000000000000000000200000000000000000000000000002000000000000000000000000000000040000000000000000000008080000000000000000000000010000000000000000000000000000000000000000000000000080000000000",
      "type": "0x2",
      "effectiveGasPrice": "0xb324a9da"
    },
    {
      "transactionHash": "0x323743d6456de3bcc1e9f7fba5c4768d1f3abbb3c70b34207e04a50f32fb3a22",
      "transactionIndex": "0x0",
      "blockHash": "0xc20fed3e4250dadc9e41ff5853ea27a48c60d96fc6aa5b74d840ee3c37bc6c05",
      "blockNumber": "0x29",
      "from": "0x31b056cE60875842bb2fE3C3DC1BC9685d518cde",
      "to": "0xB366613e8E89D5520F0B9AD397Ce3C0FEa0C94bb",
      "cumulativeGasUsed": "0xc722",
      "gasUsed": "0xc722",
      "contractAddress": null,
      "logs": [
        {
          "address": "0xB366613e8E89D5520F0B9AD397Ce3C0FEa0C94bb",
          "topics": [
            "0xddf252ad1be2c89b69c2b068fc378daa952ba7f163c4a11628f55a4df523b3ef",
            "0x0000000000000000000000000000000000000000000000000000000000000000",
            "0x0000000000000000000000000000000000000000000000000000000000000005"
          ],
          "data": "0x0000000000000000000000000000000000000000000000000de0b6b3a7640000",
          "blockHash": "0xc20fed3e4250dadc9e41ff5853ea27a48c60d96fc6aa5b74d840ee3c37bc6c05",
          "blockNumber": "0x29",
          "transactionHash": "0x323743d6456de3bcc1e9f7fba5c4768d1f3abbb3c70b34207e04a50f32fb3a22",
          "transactionIndex": "0x0",
          "logIndex": "0x0",
          "removed": false
        }
      ],
      "status": "0x1",
      "logsBloom": "0x00000000000000000000000000000000800000000000000000000000000000000000000000000000000000000000000000000000000000000000000000000000000010000000000000000008000000000000000000000000000000000000000000000000020000000000000000000800000000000000000000000010000000000000000000000000000000000000001000000800000000000000000000000000000000000000000000000200000000000000000000000000000000000000000000000002000000000040000000000000000000000000000000000000000020000000000000000000000000000000000000000000000000000000000000000000",
      "type": "0x2",
      "effectiveGasPrice": "0xb31a352c"
    },
    {
      "transactionHash": "0x7220a69e6df8b53d3654ca85cfda99a04c4b74a26ce5f674ff4d995cf1f1ff97",
      "transactionIndex": "0x1",
      "blockHash": "0xc20fed3e4250dadc9e41ff5853ea27a48c60d96fc6aa5b74d840ee3c37bc6c05",
      "blockNumber": "0x29",
      "from": "0x31b056cE60875842bb2fE3C3DC1BC9685d518cde",
      "to": "0xB366613e8E89D5520F0B9AD397Ce3C0FEa0C94bb",
      "cumulativeGasUsed": "0x17b39",
      "gasUsed": "0xb417",
      "contractAddress": null,
      "logs": [
        {
          "address": "0xB366613e8E89D5520F0B9AD397Ce3C0FEa0C94bb",
          "topics": [
            "0x8c5be1e5ebec7d5bd14f71427d1e84f3dd0314c0f7b2291e5b200ac8c7c3b925",
            "0x0000000000000000000000000000000000000000000000000000000000000005",
            "0x0000000000000000000000005d58879007bbbc0d3d20c0408da2ada7b5f5bb10"
          ],
          "data": "0xffffffffffffffffffffffffffffffffffffffffffffffffffffffffffffffff",
          "blockHash": "0xc20fed3e4250dadc9e41ff5853ea27a48c60d96fc6aa5b74d840ee3c37bc6c05",
          "blockNumber": "0x29",
          "transactionHash": "0x7220a69e6df8b53d3654ca85cfda99a04c4b74a26ce5f674ff4d995cf1f1ff97",
          "transactionIndex": "0x1",
          "logIndex": "0x1",
          "removed": false
        }
      ],
      "status": "0x1",
      "logsBloom": "0x02000000000000000000000000000000800000000000000000000000000000000000000000000000000000000000000000000000000000000000000000200000000010000000000000000000000000000000000000000000000000000000000000000000000000000000000000000000000000000000000000000000000000000000000000000000000000000000001000000800000000000000000000000000020000000000000000000200000000000000000000000000000000000000000000000000000000000040000000000000000000000080000000000000000000000010000000000000000000000000000000000000000000000000080000000000",
      "type": "0x2",
      "effectiveGasPrice": "0xb31a352c"
    },
    {
      "transactionHash": "0x3a3441b515f2b79478ec20fbbade6dcc1eee3da230401e063ee74efdf294d661",
      "transactionIndex": "0x2",
      "blockHash": "0xc20fed3e4250dadc9e41ff5853ea27a48c60d96fc6aa5b74d840ee3c37bc6c05",
      "blockNumber": "0x29",
      "from": "0x31b056cE60875842bb2fE3C3DC1BC9685d518cde",
      "to": "0xB366613e8E89D5520F0B9AD397Ce3C0FEa0C94bb",
      "cumulativeGasUsed": "0x2425b",
      "gasUsed": "0xc722",
      "contractAddress": null,
      "logs": [
        {
          "address": "0xB366613e8E89D5520F0B9AD397Ce3C0FEa0C94bb",
          "topics": [
            "0xddf252ad1be2c89b69c2b068fc378daa952ba7f163c4a11628f55a4df523b3ef",
            "0x0000000000000000000000000000000000000000000000000000000000000000",
            "0x0000000000000000000000000000000000000000000000000000000000000006"
          ],
          "data": "0x0000000000000000000000000000000000000000000000000de0b6b3a7640000",
          "blockHash": "0xc20fed3e4250dadc9e41ff5853ea27a48c60d96fc6aa5b74d840ee3c37bc6c05",
          "blockNumber": "0x29",
          "transactionHash": "0x3a3441b515f2b79478ec20fbbade6dcc1eee3da230401e063ee74efdf294d661",
          "transactionIndex": "0x2",
          "logIndex": "0x2",
          "removed": false
        }
      ],
      "status": "0x1",
      "logsBloom": "0x00000000000000000000000000000000800000000000000000000000000000000000000000000000000000000000000000000000000400000000000000000000000000000000000000000008000000000000000000000000000000000000000000000000020000000000000000000800000000000000000000000010000000000000000400000000000000000000000000000000000000000000000000000000000000000000000000000200000000000000000000000000000000080000000000000002000000000040000000000000000000000000000000000000000020000000000000000000000000000000000000000000000000000000000000000000",
      "type": "0x2",
      "effectiveGasPrice": "0xb31a352c"
    },
    {
      "transactionHash": "0x886e8023c8b39c72e9540c6462a249c9924895bf15048488ed51db6ba34ab8d1",
      "transactionIndex": "0x3",
      "blockHash": "0xc20fed3e4250dadc9e41ff5853ea27a48c60d96fc6aa5b74d840ee3c37bc6c05",
      "blockNumber": "0x29",
      "from": "0x31b056cE60875842bb2fE3C3DC1BC9685d518cde",
      "to": "0xB366613e8E89D5520F0B9AD397Ce3C0FEa0C94bb",
      "cumulativeGasUsed": "0x2f672",
      "gasUsed": "0xb417",
      "contractAddress": null,
      "logs": [
        {
          "address": "0xB366613e8E89D5520F0B9AD397Ce3C0FEa0C94bb",
          "topics": [
            "0x8c5be1e5ebec7d5bd14f71427d1e84f3dd0314c0f7b2291e5b200ac8c7c3b925",
            "0x0000000000000000000000000000000000000000000000000000000000000006",
            "0x0000000000000000000000005d58879007bbbc0d3d20c0408da2ada7b5f5bb10"
          ],
          "data": "0xffffffffffffffffffffffffffffffffffffffffffffffffffffffffffffffff",
          "blockHash": "0xc20fed3e4250dadc9e41ff5853ea27a48c60d96fc6aa5b74d840ee3c37bc6c05",
          "blockNumber": "0x29",
          "transactionHash": "0x886e8023c8b39c72e9540c6462a249c9924895bf15048488ed51db6ba34ab8d1",
          "transactionIndex": "0x3",
          "logIndex": "0x3",
          "removed": false
        }
      ],
      "status": "0x1",
      "logsBloom": "0x02000000000000000000000000000000800000000000000000000000000000000000000000000000000000000000000000000000000400000000000000200000000000000000000000000000000000000000000000000000000000000000000000000000000000000000000000000000000000000000000000000000000000000000000400000000000000000000000000000000000000000000000000000000020000000000000000000200000000000000000000000000000000080000000000000000000000000040000000000000000000000080000000000000000000000010000000000000000000000000000000000000000000000000080000000000",
      "type": "0x2",
      "effectiveGasPrice": "0xb31a352c"
    },
    {
      "transactionHash": "0x397ea8a1a6f862bc18dd171adc83da4305b97e03bbddc5e4a9b06ad14d73af4f",
      "transactionIndex": "0x4",
      "blockHash": "0xc20fed3e4250dadc9e41ff5853ea27a48c60d96fc6aa5b74d840ee3c37bc6c05",
      "blockNumber": "0x29",
      "from": "0x31b056cE60875842bb2fE3C3DC1BC9685d518cde",
      "to": "0xB366613e8E89D5520F0B9AD397Ce3C0FEa0C94bb",
      "cumulativeGasUsed": "0x3bd94",
      "gasUsed": "0xc722",
      "contractAddress": null,
      "logs": [
        {
          "address": "0xB366613e8E89D5520F0B9AD397Ce3C0FEa0C94bb",
          "topics": [
            "0xddf252ad1be2c89b69c2b068fc378daa952ba7f163c4a11628f55a4df523b3ef",
            "0x0000000000000000000000000000000000000000000000000000000000000000",
            "0x0000000000000000000000000000000000000000000000000000000000000007"
          ],
          "data": "0x0000000000000000000000000000000000000000000000000de0b6b3a7640000",
          "blockHash": "0xc20fed3e4250dadc9e41ff5853ea27a48c60d96fc6aa5b74d840ee3c37bc6c05",
          "blockNumber": "0x29",
          "transactionHash": "0x397ea8a1a6f862bc18dd171adc83da4305b97e03bbddc5e4a9b06ad14d73af4f",
          "transactionIndex": "0x4",
          "logIndex": "0x4",
          "removed": false
        }
      ],
      "status": "0x1",
      "logsBloom": "0x00000000000000000000000000000000800000000000000000000000000000000000000000000000000000000000000000001000000000000000000000000000000020000000000000000008000000000000000000000000000000000000000000000000020000000000000000000800000000000000000000000010000000000000000000000000000000000000000000000000000000000000000000000000000000000000000000000200000000000000000000000000000000000000000000000002000000000040000000000000000000000000000000000100000020000000000000000000000000000000000000000000000000000000000000000000",
      "type": "0x2",
      "effectiveGasPrice": "0xb31a352c"
    },
    {
      "transactionHash": "0x72d11d924e402e20cbe4e496341e69a1503686095db0b361765758464aadb7ab",
      "transactionIndex": "0x0",
      "blockHash": "0xad09c71bae88e6ceee30a965effc4cba906245e530368c04027b57d7705d5891",
      "blockNumber": "0x2a",
      "from": "0x31b056cE60875842bb2fE3C3DC1BC9685d518cde",
      "to": "0xB366613e8E89D5520F0B9AD397Ce3C0FEa0C94bb",
      "cumulativeGasUsed": "0xb417",
      "gasUsed": "0xb417",
      "contractAddress": null,
      "logs": [
        {
          "address": "0xB366613e8E89D5520F0B9AD397Ce3C0FEa0C94bb",
          "topics": [
            "0x8c5be1e5ebec7d5bd14f71427d1e84f3dd0314c0f7b2291e5b200ac8c7c3b925",
            "0x0000000000000000000000000000000000000000000000000000000000000007",
            "0x0000000000000000000000005d58879007bbbc0d3d20c0408da2ada7b5f5bb10"
          ],
          "data": "0xffffffffffffffffffffffffffffffffffffffffffffffffffffffffffffffff",
          "blockHash": "0xad09c71bae88e6ceee30a965effc4cba906245e530368c04027b57d7705d5891",
          "blockNumber": "0x2a",
          "transactionHash": "0x72d11d924e402e20cbe4e496341e69a1503686095db0b361765758464aadb7ab",
          "transactionIndex": "0x0",
          "logIndex": "0x0",
          "removed": false
        }
      ],
      "status": "0x1",
      "logsBloom": "0x02000000000000000000000000000000800000000000000000000000000000000000000000000000000000000000000000001000000000000000000000200000000020000000000000000000000000000000000000000000000000000000000000000000000000000000000000000000000000000000000000000000000000000000000000000000000000000000000000000000000000000000000000000000020000000000000000000200000000000000000000000000000000000000000000000000000000000040000000000000000000000080000000000100000000000010000000000000000000000000000000000000000000000000080000000000",
      "type": "0x2",
      "effectiveGasPrice": "0xb3115b10"
    },
    {
      "transactionHash": "0xfe9c602721b73094b166f9405f9f46a3d5d236521f8e14a73c0168c584b9424b",
      "transactionIndex": "0x0",
      "blockHash": "0xb99a39b3abeda9763aaf4759a690c6067df61e90ca5a1919ec92c108477f447c",
      "blockNumber": "0x2b",
      "from": "0x31b056cE60875842bb2fE3C3DC1BC9685d518cde",
      "to": "0xB366613e8E89D5520F0B9AD397Ce3C0FEa0C94bb",
      "cumulativeGasUsed": "0xc722",
      "gasUsed": "0xc722",
      "contractAddress": null,
      "logs": [
        {
          "address": "0xB366613e8E89D5520F0B9AD397Ce3C0FEa0C94bb",
          "topics": [
            "0xddf252ad1be2c89b69c2b068fc378daa952ba7f163c4a11628f55a4df523b3ef",
            "0x0000000000000000000000000000000000000000000000000000000000000000",
            "0x0000000000000000000000000000000000000000000000000000000000000008"
          ],
          "data": "0x0000000000000000000000000000000000000000000000000de0b6b3a7640000",
          "blockHash": "0xb99a39b3abeda9763aaf4759a690c6067df61e90ca5a1919ec92c108477f447c",
          "blockNumber": "0x2b",
          "transactionHash": "0xfe9c602721b73094b166f9405f9f46a3d5d236521f8e14a73c0168c584b9424b",
          "transactionIndex": "0x0",
          "logIndex": "0x0",
          "removed": false
        }
      ],
      "status": "0x1",
      "logsBloom": "0x00000000000000000000000000000000800000000000000000000000000000000000000000000000000000000000000000000000000080000000000000000000000000000000000000000008000000000000000000000000000000000000000000000000020000000000000000000800000000000000000000000010000000000080000000000000000000000000000000000000000000000000000000000000000000000000000000000200000000000000000000000000000000000000000040000002000000000040000000000000000000000000000000000000000020000000000000000000000000000000000000000000000000000000000000000000",
      "type": "0x2",
      "effectiveGasPrice": "0xb3094b70"
    },
    {
      "transactionHash": "0xf44e45fd32d14db52862440d6e12aeef5a466b0113a30f2ee193023057d2af1f",
      "transactionIndex": "0x1",
      "blockHash": "0xb99a39b3abeda9763aaf4759a690c6067df61e90ca5a1919ec92c108477f447c",
      "blockNumber": "0x2b",
      "from": "0x31b056cE60875842bb2fE3C3DC1BC9685d518cde",
      "to": "0xB366613e8E89D5520F0B9AD397Ce3C0FEa0C94bb",
      "cumulativeGasUsed": "0x17b39",
      "gasUsed": "0xb417",
      "contractAddress": null,
      "logs": [
        {
          "address": "0xB366613e8E89D5520F0B9AD397Ce3C0FEa0C94bb",
          "topics": [
            "0x8c5be1e5ebec7d5bd14f71427d1e84f3dd0314c0f7b2291e5b200ac8c7c3b925",
            "0x0000000000000000000000000000000000000000000000000000000000000008",
            "0x0000000000000000000000005d58879007bbbc0d3d20c0408da2ada7b5f5bb10"
          ],
          "data": "0xffffffffffffffffffffffffffffffffffffffffffffffffffffffffffffffff",
          "blockHash": "0xb99a39b3abeda9763aaf4759a690c6067df61e90ca5a1919ec92c108477f447c",
          "blockNumber": "0x2b",
          "transactionHash": "0xf44e45fd32d14db52862440d6e12aeef5a466b0113a30f2ee193023057d2af1f",
          "transactionIndex": "0x1",
          "logIndex": "0x1",
          "removed": false
        }
      ],
      "status": "0x1",
      "logsBloom": "0x02000000000000000000000000000000800000000000000000000000000000000000000000000000000000000000000000000000000080000000000000200000000000000000000000000000000000000000000000000000000000000000000000000000000000000000000000000000000000000000000000000000000000000080000000000000000000000000000000000000000000000000000000000000020000000000000000000200000000000000000000000000000000000000000040000000000000000040000000000000000000000080000000000000000000000010000000000000000000000000000000000000000000000000080000000000",
      "type": "0x2",
      "effectiveGasPrice": "0xb3094b70"
    },
    {
      "transactionHash": "0x5d512a0b4f7f9a4321062675662c71b3b099509714f63966ee103c76fbc6f26d",
      "transactionIndex": "0x0",
      "blockHash": "0xdd518ef0b7464f1e5a2a30a89fe32b8cc1238669e5396d233c189abd64e086cc",
      "blockNumber": "0x2c",
      "from": "0x31b056cE60875842bb2fE3C3DC1BC9685d518cde",
      "to": "0xB366613e8E89D5520F0B9AD397Ce3C0FEa0C94bb",
      "cumulativeGasUsed": "0xc722",
      "gasUsed": "0xc722",
      "contractAddress": null,
      "logs": [
        {
          "address": "0xB366613e8E89D5520F0B9AD397Ce3C0FEa0C94bb",
          "topics": [
            "0xddf252ad1be2c89b69c2b068fc378daa952ba7f163c4a11628f55a4df523b3ef",
            "0x0000000000000000000000000000000000000000000000000000000000000000",
            "0x0000000000000000000000000000000000000000000000000000000000000009"
          ],
          "data": "0x0000000000000000000000000000000000000000000000000de0b6b3a7640000",
          "blockHash": "0xdd518ef0b7464f1e5a2a30a89fe32b8cc1238669e5396d233c189abd64e086cc",
          "blockNumber": "0x2c",
          "transactionHash": "0x5d512a0b4f7f9a4321062675662c71b3b099509714f63966ee103c76fbc6f26d",
          "transactionIndex": "0x0",
          "logIndex": "0x0",
          "removed": false
        }
      ],
      "status": "0x1",
      "logsBloom": "0x00000000000000000000000000000000800000000000000000000000000000000000000000000000000000000000000000000000000000000000000000200000000000000000000000000008000000000000000000000000000000000000000000000000020000000000000000000800000000000000000000000010000000000000000000000000000000000000000000001000000000000000000000000000000000000000000000000200000000000000000000000000000000000000000000000002000000000040000000000000000000000000000000000000000020000000000000000000000000000000000000000000000000000000000000800000",
      "type": "0x2",
      "effectiveGasPrice": "0xb3024b41"
    },
    {
      "transactionHash": "0x5a74aa49d08109d776c404a5c4a8a43e9736b53e69f3913f509bfeca889386de",
      "transactionIndex": "0x1",
      "blockHash": "0xdd518ef0b7464f1e5a2a30a89fe32b8cc1238669e5396d233c189abd64e086cc",
      "blockNumber": "0x2c",
      "from": "0x31b056cE60875842bb2fE3C3DC1BC9685d518cde",
      "to": "0xB366613e8E89D5520F0B9AD397Ce3C0FEa0C94bb",
      "cumulativeGasUsed": "0x17b39",
      "gasUsed": "0xb417",
      "contractAddress": null,
      "logs": [
        {
          "address": "0xB366613e8E89D5520F0B9AD397Ce3C0FEa0C94bb",
          "topics": [
            "0x8c5be1e5ebec7d5bd14f71427d1e84f3dd0314c0f7b2291e5b200ac8c7c3b925",
            "0x0000000000000000000000000000000000000000000000000000000000000009",
            "0x0000000000000000000000005d58879007bbbc0d3d20c0408da2ada7b5f5bb10"
          ],
          "data": "0xffffffffffffffffffffffffffffffffffffffffffffffffffffffffffffffff",
          "blockHash": "0xdd518ef0b7464f1e5a2a30a89fe32b8cc1238669e5396d233c189abd64e086cc",
          "blockNumber": "0x2c",
          "transactionHash": "0x5a74aa49d08109d776c404a5c4a8a43e9736b53e69f3913f509bfeca889386de",
          "transactionIndex": "0x1",
          "logIndex": "0x1",
          "removed": false
        }
      ],
      "status": "0x1",
      "logsBloom": "0x02000000000000000000000000000000800000000000000000000000000000000000000000000000000000000000000000000000000000000000000000200000000000000000000000000000000000000000000000000000000000000000000000000000000000000000000000000000000000000000000000000000000000000000000000000000000000000000000000001000000000000000000000000000020000000000000000000200000000000000000000000000000000000000000000000000000000000040000000000000000000000080000000000000000000000010000000000000000000000000000000000000000000000000080000800000",
      "type": "0x2",
      "effectiveGasPrice": "0xb3024b41"
    }
  ],
  "libraries": [],
  "pending": [],
  "path": "/home/toda/dev/misc/noncustodial-flash-loans/broadcast/Approvals.s.sol/1337/run-latest.json",
  "returns": {},
  "timestamp": 1666806536,
  "commit": "6276ce2"
}