{
  "transactions": [
    {
      "hash": "0xdf0f934699a1445c516d01b83187f0108f8d91c92e169a4fa56de68ce0e01f82",
      "transactionType": "CREATE",
      "contractName": "MockERC20",
      "contractAddress": "0x9FA2E4aC8e4058dEE89bf70CDeB755eE1176A59b",
      "function": null,
      "arguments": null,
      "transaction": {
        "type": "0x02",
        "from": "0x31b056ce60875842bb2fe3c3dc1bc9685d518cde",
        "gas": "0xedd61",
        "value": "0x0",
        "data": "0x60e06040818152346200041157620000178262000416565b600491828152602091634d4f434b60e01b838301528051936200003a8562000416565b808552634d6f636b60e01b8486015282516001600160401b0395909190868311620003fc57600092806200006f855462000448565b96601f97888111620003ab575b5088908883116001146200034357869262000337575b50508160011b916000199060031b1c19161783555b8051878111620002085780600192620000c1845462000448565b888111620002e4575b5088908883116001146200028057869262000274575b5050600019600383901b1c191690821b1781555b60126080524660a0528351948390845492620001108462000448565b90818952898901948a8282169182600014620002575750506001146200021b575b505086601f1992030116850194808610888711176200020857858552519020948401947f8b73c3c69bb8fe3d512ecc4cf759cc79239f7b179b0ffacaa9a75d522b39400f8652838501527fc89efdaa54c0f20c7adf612882df0950f5a951637e0307cdcb4c672f298b8bc660608501524660808501523060a085015260a0845260c084019584871090871117620001f557505083905251902060c052610b7690816200048682396080518161065e015260a0518161099f015260c051816109c60152f35b634e487b7160e01b825260419052602490fd5b634e487b7160e01b845260418352602484fd5b90899293508680528287209187925b828410620002415750505087010190388062000131565b80548b85018601528b949093019281016200022a565b92509394505060ff19168452151560051b87010190388062000131565b015190503880620000e0565b8487528987208594509190601f198416885b8c828210620002cd5750508411620002b3575b505050811b018155620000f4565b015160001960f88460031b161c19169055388080620002a5565b838501518655889790950194938401930162000292565b9091508386528886208880850160051c8201928b86106200032d575b918691869594930160051c01915b8281106200031e575050620000ca565b8881558594508691016200030e565b9250819262000300565b01519050388062000092565b8680528987209250601f198416875b8b828210620003945750509084600195949392106200037a575b505050811b018355620000a7565b015160001960f88460031b161c191690553880806200036c565b600185968293968601518155019501930162000352565b9091508580528886208880850160051c8201928b8610620003f2575b9085949392910160051c01905b818110620003e357506200007c565b878155849350600101620003d4565b92508192620003c7565b604182634e487b7160e01b6000525260246000fd5b600080fd5b604081019081106001600160401b038211176200043257604052565b634e487b7160e01b600052604160045260246000fd5b90600182811c921680156200047a575b60208310146200046457565b634e487b7160e01b600052602260045260246000fd5b91607f16916200045856fe6080604081815260048036101561001557600080fd5b600092833560e01c90816306fdde03146107e557508063095ea7b31461077757806318160ddd1461075857806323b872dd14610682578063313ce567146106445780633644e5151461062057806340c10f19146105935780636545964f1461051f57806370a08231146104e75780637ecebe00146104af57806395d89b41146103d0578063a9059cbb1461034c578063d505accf146101085763dd62ed3e146100bd57600080fd5b3461010457816003193601126101045760209282916100da610946565b6100e2610961565b6001600160a01b03918216845291865283832091168252845220549051908152f35b8280fd5b509190346103485760e036600319011261034857610124610946565b9061012d610961565b91604435606435926084359260ff8416809403610344574285106103015761015361099a565b9560018060a01b038092169586895260209560058752848a209889549960018b01905585519285898501957f6e71edae12b1b97f4d1f60370fef10105fa2faae0126114a169c64845d6126c987528b89870152169a8b606086015288608086015260a085015260c084015260c0835260e0830167ffffffffffffffff94848210868311176102ed578188528451902061010085019261190160f01b845261010286015261012285015260428152610160840194818610908611176102da57848752519020835261018082015260a4356101a082015260c4356101c0909101528780528490889060809060015afa156102d05786511696871515806102c7575b156102955786977f8c5be1e5ebec7d5bd14f71427d1e84f3dd0314c0f7b2291e5b200ac8c7c3b9259596975283528087208688528352818188205551908152a380f35b83606492519162461bcd60e51b8352820152600e60248201526d24a72b20a624a22fa9a4a3a722a960911b6044820152fd5b50848814610252565b81513d88823e3d90fd5b634e487b7160e01b8c5260418d5260248cfd5b50634e487b7160e01b8c5260418d5260248cfd5b815162461bcd60e51b81526020818a0152601760248201527f5045524d49545f444541444c494e455f455850495245440000000000000000006044820152606490fd5b8680fd5b5080fd5b505034610348578060031936011261034857602091610369610946565b826024359133845260038652818420610383848254610977565b90556001600160a01b0316808452600386529220805482019055825190815233907fddf252ad1be2c89b69c2b068fc378daa952ba7f163c4a11628f55a4df523b3ef908590a35160018152f35b5050346103485781600319360112610348578051908260018054916103f48361088b565b80865292828116908115610487575060011461042b575b50505061041d826104279403836108c5565b51918291826108fd565b0390f35b94508085527fb10e2d527612073b26eecdfd717e6a320cf44b4afac2b0732d9fcbe2b7fa0cf65b82861061046f5750505061041d826020610427958201019461040b565b80546020878701810191909152909501948101610452565b61042797508693506020925061041d94915060ff191682840152151560051b8201019461040b565b5050346103485760203660031901126103485760209181906001600160a01b036104d7610946565b1681526005845220549051908152f35b5050346103485760203660031901126103485760209181906001600160a01b0361050f610946565b1681526003845220549051908152f35b50346101045781600319360112610104577f8c5be1e5ebec7d5bd14f71427d1e84f3dd0314c0f7b2291e5b200ac8c7c3b925602061055b610946565b93610564610961565b6001600160a01b039586168088529483528187209516808752948252808620600019908190559051908152a380f35b50346101045781600319360112610104576105ac610946565b602435916002549083820180921161060d57506002556001600160a01b03168084526003602090815283852080548401905592519182529183917fddf252ad1be2c89b69c2b068fc378daa952ba7f163c4a11628f55a4df523b3ef9190a380f35b634e487b7160e01b865260119052602485fd5b50503461034857816003193601126103485760209061063d61099a565b9051908152f35b5050346103485781600319360112610348576020905160ff7f0000000000000000000000000000000000000000000000000000000000000000168152f35b5091346107555760603660031901126107555761069d610946565b7fddf252ad1be2c89b69c2b068fc378daa952ba7f163c4a11628f55a4df523b3ef6106c6610961565b6001600160a01b0392831680855260208781528686203387528152868620549097919488936044359389938560018201610732575b50505086885260038552828820610713858254610977565b9055169586815260038452208181540190558551908152a35160018152f35b61073b91610977565b90888a528652838920338a528652838920553880856106fb565b80fd5b5050346103485781600319360112610348576020906002549051908152f35b5034610104578160031936011261010457602092610793610946565b918360243592839233825287528181209460018060a01b0316948582528752205582519081527f8c5be1e5ebec7d5bd14f71427d1e84f3dd0314c0f7b2291e5b200ac8c7c3b925843392a35160018152f35b849084346101045782600319360112610104578280546108048161088b565b80855291600191808316908115610487575060011461082f5750505061041d826104279403836108c5565b80809650527f290decd9548b62a8d60345a988386fc84ba6bc95484008f6362f93160ef3e5635b8286106108735750505061041d826020610427958201019461040b565b80546020878701810191909152909501948101610856565b90600182811c921680156108bb575b60208310146108a557565b634e487b7160e01b600052602260045260246000fd5b91607f169161089a565b90601f8019910116810190811067ffffffffffffffff8211176108e757604052565b634e487b7160e01b600052604160045260246000fd5b6020808252825181830181905290939260005b82811061093257505060409293506000838284010152601f8019910116010190565b818101860151848201604001528501610910565b600435906001600160a01b038216820361095c57565b600080fd5b602435906001600160a01b038216820361095c57565b9190820391821161098457565b634e487b7160e01b600052601160045260246000fd5b6000467f0000000000000000000000000000000000000000000000000000000000000000036109e857507f000000000000000000000000000000000000000000000000000000000000000090565b604051815482916109f88261088b565b8082528160209485820194600190878282169182600014610b22575050600114610ac9575b50610a2a925003826108c5565b51902091604051918201927f8b73c3c69bb8fe3d512ecc4cf759cc79239f7b179b0ffacaa9a75d522b39400f845260408301527fc89efdaa54c0f20c7adf612882df0950f5a951637e0307cdcb4c672f298b8bc660608301524660808301523060a083015260a0825260c082019082821067ffffffffffffffff831117610ab5575060405251902090565b634e487b7160e01b81526041600452602490fd5b87805286915087907f290decd9548b62a8d60345a988386fc84ba6bc95484008f6362f93160ef3e5635b858310610b0a575050610a2a935082010138610a1d565b80548388018501528694508893909201918101610af3565b60ff19168852610a2a95151560051b8501019250389150610a1d905056fea26469706673582212203389a7a21fc6d7b8e4bb0a090e21c945656311c081171302a3d3827ebe28f53764736f6c63430008110033",
        "nonce": "0x5",
        "accessList": []
      },
      "additionalContracts": []
    },
    {
      "hash": "0x05b28fa7de126f9e0cbc3ae795b94a12c55b9f8344b70a01e89e4ed3354b700f",
      "transactionType": "CALL",
      "contractName": "MockERC20",
      "contractAddress": "0x9FA2E4aC8e4058dEE89bf70CDeB755eE1176A59b",
      "function": "mint(address,uint256)",
      "arguments": [
        "0x0000000000000000000000000000000000000001",
        "1000000000000000000"
      ],
      "transaction": {
        "type": "0x02",
        "from": "0x31b056ce60875842bb2fe3c3dc1bc9685d518cde",
        "to": "0x9fa2e4ac8e4058dee89bf70cdeb755ee1176a59b",
        "gas": "0x183ee",
        "value": "0x0",
        "data": "0x40c10f1900000000000000000000000000000000000000000000000000000000000000010000000000000000000000000000000000000000000000000de0b6b3a7640000",
        "nonce": "0x6",
        "accessList": []
      },
      "additionalContracts": []
    },
    {
      "hash": "0x599eb6944910d6dc015264fa40c9c260e59b87088de0ed928fc7a178eecb4635",
      "transactionType": "CALL",
      "contractName": "MockERC20",
      "contractAddress": "0x9FA2E4aC8e4058dEE89bf70CDeB755eE1176A59b",
      "function": "forceApprove(address,address)",
      "arguments": [
        "0x0000000000000000000000000000000000000001",
        "0x78aad82bAD32B755FA56B5F9822BE10e4809CfCb"
      ],
      "transaction": {
        "type": "0x02",
        "from": "0x31b056ce60875842bb2fe3c3dc1bc9685d518cde",
        "to": "0x9fa2e4ac8e4058dee89bf70cdeb755ee1176a59b",
        "gas": "0x10743",
        "value": "0x0",
        "data": "0x6545964f000000000000000000000000000000000000000000000000000000000000000100000000000000000000000078aad82bad32b755fa56b5f9822be10e4809cfcb",
        "nonce": "0x7",
        "accessList": []
      },
      "additionalContracts": []
    },
    {
      "hash": "0x0f1dd2a7daf6d08982cf493b2c530c5705a0c448059d49f4a6007c7aa13a877c",
      "transactionType": "CALL",
      "contractName": "MockERC20",
      "contractAddress": "0x9FA2E4aC8e4058dEE89bf70CDeB755eE1176A59b",
      "function": "mint(address,uint256)",
      "arguments": [
        "0x0000000000000000000000000000000000000002",
        "1000000000000000000"
      ],
      "transaction": {
        "type": "0x02",
        "from": "0x31b056ce60875842bb2fe3c3dc1bc9685d518cde",
        "to": "0x9fa2e4ac8e4058dee89bf70cdeb755ee1176a59b",
        "gas": "0x1121e",
        "value": "0x0",
        "data": "0x40c10f1900000000000000000000000000000000000000000000000000000000000000020000000000000000000000000000000000000000000000000de0b6b3a7640000",
        "nonce": "0x8",
        "accessList": []
      },
      "additionalContracts": []
    },
    {
      "hash": "0x9fc6e81fc4013982a072a2aa8315dee9b030b5f60359d7c5b828107c46ea9788",
      "transactionType": "CALL",
      "contractName": "MockERC20",
      "contractAddress": "0x9FA2E4aC8e4058dEE89bf70CDeB755eE1176A59b",
      "function": "forceApprove(address,address)",
      "arguments": [
        "0x0000000000000000000000000000000000000002",
        "0x78aad82bAD32B755FA56B5F9822BE10e4809CfCb"
      ],
      "transaction": {
        "type": "0x02",
        "from": "0x31b056ce60875842bb2fe3c3dc1bc9685d518cde",
        "to": "0x9fa2e4ac8e4058dee89bf70cdeb755ee1176a59b",
        "gas": "0x10743",
        "value": "0x0",
        "data": "0x6545964f000000000000000000000000000000000000000000000000000000000000000200000000000000000000000078aad82bad32b755fa56b5f9822be10e4809cfcb",
        "nonce": "0x9",
        "accessList": []
      },
      "additionalContracts": []
    },
    {
      "hash": "0xb2fff2ad4968260972f9c11d78a13b62fe4fc14cf152676ae3f41e7053c7e9c2",
      "transactionType": "CALL",
      "contractName": "MockERC20",
      "contractAddress": "0x9FA2E4aC8e4058dEE89bf70CDeB755eE1176A59b",
      "function": "mint(address,uint256)",
      "arguments": [
        "0x0000000000000000000000000000000000000003",
        "1000000000000000000"
      ],
      "transaction": {
        "type": "0x02",
        "from": "0x31b056ce60875842bb2fe3c3dc1bc9685d518cde",
        "to": "0x9fa2e4ac8e4058dee89bf70cdeb755ee1176a59b",
        "gas": "0x1121e",
        "value": "0x0",
        "data": "0x40c10f1900000000000000000000000000000000000000000000000000000000000000030000000000000000000000000000000000000000000000000de0b6b3a7640000",
        "nonce": "0xa",
        "accessList": []
      },
      "additionalContracts": []
    },
    {
      "hash": "0x1dfdf860aac4e8b57c88912c134c29c48102fa437a67af05ead445d60f4ed816",
      "transactionType": "CALL",
      "contractName": "MockERC20",
      "contractAddress": "0x9FA2E4aC8e4058dEE89bf70CDeB755eE1176A59b",
      "function": "forceApprove(address,address)",
      "arguments": [
        "0x0000000000000000000000000000000000000003",
        "0x78aad82bAD32B755FA56B5F9822BE10e4809CfCb"
      ],
      "transaction": {
        "type": "0x02",
        "from": "0x31b056ce60875842bb2fe3c3dc1bc9685d518cde",
        "to": "0x9fa2e4ac8e4058dee89bf70cdeb755ee1176a59b",
        "gas": "0x10743",
        "value": "0x0",
        "data": "0x6545964f000000000000000000000000000000000000000000000000000000000000000300000000000000000000000078aad82bad32b755fa56b5f9822be10e4809cfcb",
        "nonce": "0xb",
        "accessList": []
      },
      "additionalContracts": []
    },
    {
      "hash": "0x69109e1e312db94d2d955aaad14f4e045faea5baa5358bbb85ab584cbd5d2bab",
      "transactionType": "CALL",
      "contractName": "MockERC20",
      "contractAddress": "0x9FA2E4aC8e4058dEE89bf70CDeB755eE1176A59b",
      "function": "mint(address,uint256)",
      "arguments": [
        "0x0000000000000000000000000000000000000004",
        "1000000000000000000"
      ],
      "transaction": {
        "type": "0x02",
        "from": "0x31b056ce60875842bb2fe3c3dc1bc9685d518cde",
        "to": "0x9fa2e4ac8e4058dee89bf70cdeb755ee1176a59b",
        "gas": "0x1121e",
        "value": "0x0",
        "data": "0x40c10f1900000000000000000000000000000000000000000000000000000000000000040000000000000000000000000000000000000000000000000de0b6b3a7640000",
        "nonce": "0xc",
        "accessList": []
      },
      "additionalContracts": []
    },
    {
      "hash": "0xa2190f33be8bdc790324d1d499bd5a3ca1bad143e36e8dbc30224546cab07980",
      "transactionType": "CALL",
      "contractName": "MockERC20",
      "contractAddress": "0x9FA2E4aC8e4058dEE89bf70CDeB755eE1176A59b",
      "function": "forceApprove(address,address)",
      "arguments": [
        "0x0000000000000000000000000000000000000004",
        "0x78aad82bAD32B755FA56B5F9822BE10e4809CfCb"
      ],
      "transaction": {
        "type": "0x02",
        "from": "0x31b056ce60875842bb2fe3c3dc1bc9685d518cde",
        "to": "0x9fa2e4ac8e4058dee89bf70cdeb755ee1176a59b",
        "gas": "0x10743",
        "value": "0x0",
        "data": "0x6545964f000000000000000000000000000000000000000000000000000000000000000400000000000000000000000078aad82bad32b755fa56b5f9822be10e4809cfcb",
        "nonce": "0xd",
        "accessList": []
      },
      "additionalContracts": []
    },
    {
      "hash": "0xd802e27b8a493e06353ced962b18c60b9218cc85b5ea6dacb23be1c8a8f72dee",
      "transactionType": "CALL",
      "contractName": "MockERC20",
      "contractAddress": "0x9FA2E4aC8e4058dEE89bf70CDeB755eE1176A59b",
      "function": "mint(address,uint256)",
      "arguments": [
        "0x0000000000000000000000000000000000000005",
        "1000000000000000000"
      ],
      "transaction": {
        "type": "0x02",
        "from": "0x31b056ce60875842bb2fe3c3dc1bc9685d518cde",
        "to": "0x9fa2e4ac8e4058dee89bf70cdeb755ee1176a59b",
        "gas": "0x1121e",
        "value": "0x0",
        "data": "0x40c10f1900000000000000000000000000000000000000000000000000000000000000050000000000000000000000000000000000000000000000000de0b6b3a7640000",
        "nonce": "0xe",
        "accessList": []
      },
      "additionalContracts": []
    },
    {
      "hash": "0x8a17f4ef264dbdf629883308f154bae62f1dd3e0b976ace325867f9c945c27a8",
      "transactionType": "CALL",
      "contractName": "MockERC20",
      "contractAddress": "0x9FA2E4aC8e4058dEE89bf70CDeB755eE1176A59b",
      "function": "forceApprove(address,address)",
      "arguments": [
        "0x0000000000000000000000000000000000000005",
        "0x78aad82bAD32B755FA56B5F9822BE10e4809CfCb"
      ],
      "transaction": {
        "type": "0x02",
        "from": "0x31b056ce60875842bb2fe3c3dc1bc9685d518cde",
        "to": "0x9fa2e4ac8e4058dee89bf70cdeb755ee1176a59b",
        "gas": "0x10743",
        "value": "0x0",
        "data": "0x6545964f000000000000000000000000000000000000000000000000000000000000000500000000000000000000000078aad82bad32b755fa56b5f9822be10e4809cfcb",
        "nonce": "0xf",
        "accessList": []
      },
      "additionalContracts": []
    },
    {
      "hash": "0x99e7bbab654d80f0c82335570e1d26e93d0802b65360ead8dba0557d3c523866",
      "transactionType": "CALL",
      "contractName": "MockERC20",
      "contractAddress": "0x9FA2E4aC8e4058dEE89bf70CDeB755eE1176A59b",
      "function": "mint(address,uint256)",
      "arguments": [
        "0x0000000000000000000000000000000000000006",
        "1000000000000000000"
      ],
      "transaction": {
        "type": "0x02",
        "from": "0x31b056ce60875842bb2fe3c3dc1bc9685d518cde",
        "to": "0x9fa2e4ac8e4058dee89bf70cdeb755ee1176a59b",
        "gas": "0x1121e",
        "value": "0x0",
        "data": "0x40c10f1900000000000000000000000000000000000000000000000000000000000000060000000000000000000000000000000000000000000000000de0b6b3a7640000",
        "nonce": "0x10",
        "accessList": []
      },
      "additionalContracts": []
    },
    {
      "hash": "0x5f50831c39f5b8641bc76128be90803a0ba30bea7f01f9cd56728817d15c0acb",
      "transactionType": "CALL",
      "contractName": "MockERC20",
      "contractAddress": "0x9FA2E4aC8e4058dEE89bf70CDeB755eE1176A59b",
      "function": "forceApprove(address,address)",
      "arguments": [
        "0x0000000000000000000000000000000000000006",
        "0x78aad82bAD32B755FA56B5F9822BE10e4809CfCb"
      ],
      "transaction": {
        "type": "0x02",
        "from": "0x31b056ce60875842bb2fe3c3dc1bc9685d518cde",
        "to": "0x9fa2e4ac8e4058dee89bf70cdeb755ee1176a59b",
        "gas": "0x10743",
        "value": "0x0",
        "data": "0x6545964f000000000000000000000000000000000000000000000000000000000000000600000000000000000000000078aad82bad32b755fa56b5f9822be10e4809cfcb",
        "nonce": "0x11",
        "accessList": []
      },
      "additionalContracts": []
    },
    {
      "hash": "0x1a5d2f9026a522316b7cdb7a9ec0d6a565ab65c5138bf2a6082917cdb8c16fe5",
      "transactionType": "CALL",
      "contractName": "MockERC20",
      "contractAddress": "0x9FA2E4aC8e4058dEE89bf70CDeB755eE1176A59b",
      "function": "mint(address,uint256)",
      "arguments": [
        "0x0000000000000000000000000000000000000007",
        "1000000000000000000"
      ],
      "transaction": {
        "type": "0x02",
        "from": "0x31b056ce60875842bb2fe3c3dc1bc9685d518cde",
        "to": "0x9fa2e4ac8e4058dee89bf70cdeb755ee1176a59b",
        "gas": "0x1121e",
        "value": "0x0",
        "data": "0x40c10f1900000000000000000000000000000000000000000000000000000000000000070000000000000000000000000000000000000000000000000de0b6b3a7640000",
        "nonce": "0x12",
        "accessList": []
      },
      "additionalContracts": []
    },
    {
      "hash": "0xa18b3401bfddb0e25d50962fa1d2430808f62c50602a63b1eb5983e9e32c7a4f",
      "transactionType": "CALL",
      "contractName": "MockERC20",
      "contractAddress": "0x9FA2E4aC8e4058dEE89bf70CDeB755eE1176A59b",
      "function": "forceApprove(address,address)",
      "arguments": [
        "0x0000000000000000000000000000000000000007",
        "0x78aad82bAD32B755FA56B5F9822BE10e4809CfCb"
      ],
      "transaction": {
        "type": "0x02",
        "from": "0x31b056ce60875842bb2fe3c3dc1bc9685d518cde",
        "to": "0x9fa2e4ac8e4058dee89bf70cdeb755ee1176a59b",
        "gas": "0x10743",
        "value": "0x0",
        "data": "0x6545964f000000000000000000000000000000000000000000000000000000000000000700000000000000000000000078aad82bad32b755fa56b5f9822be10e4809cfcb",
        "nonce": "0x13",
        "accessList": []
      },
      "additionalContracts": []
    },
    {
      "hash": "0x1c5d1f5523ff85dfc51f9ae8c96af98713f486348004dd3cdfad14e8c1d1540b",
      "transactionType": "CALL",
      "contractName": "MockERC20",
      "contractAddress": "0x9FA2E4aC8e4058dEE89bf70CDeB755eE1176A59b",
      "function": "mint(address,uint256)",
      "arguments": [
        "0x0000000000000000000000000000000000000008",
        "1000000000000000000"
      ],
      "transaction": {
        "type": "0x02",
        "from": "0x31b056ce60875842bb2fe3c3dc1bc9685d518cde",
        "to": "0x9fa2e4ac8e4058dee89bf70cdeb755ee1176a59b",
        "gas": "0x1121e",
        "value": "0x0",
        "data": "0x40c10f1900000000000000000000000000000000000000000000000000000000000000080000000000000000000000000000000000000000000000000de0b6b3a7640000",
        "nonce": "0x14",
        "accessList": []
      },
      "additionalContracts": []
    },
    {
      "hash": "0xa254a5f33553f3abbcca445b28547410529136ffa8105b5bca57fcd57223a339",
      "transactionType": "CALL",
      "contractName": "MockERC20",
      "contractAddress": "0x9FA2E4aC8e4058dEE89bf70CDeB755eE1176A59b",
      "function": "forceApprove(address,address)",
      "arguments": [
        "0x0000000000000000000000000000000000000008",
        "0x78aad82bAD32B755FA56B5F9822BE10e4809CfCb"
      ],
      "transaction": {
        "type": "0x02",
        "from": "0x31b056ce60875842bb2fe3c3dc1bc9685d518cde",
        "to": "0x9fa2e4ac8e4058dee89bf70cdeb755ee1176a59b",
        "gas": "0x10743",
        "value": "0x0",
        "data": "0x6545964f000000000000000000000000000000000000000000000000000000000000000800000000000000000000000078aad82bad32b755fa56b5f9822be10e4809cfcb",
        "nonce": "0x15",
        "accessList": []
      },
      "additionalContracts": []
    },
    {
      "hash": "0xc7bf48e4d9ae0920abdd3607791100849fa9a59151034c4051602346917fc85d",
      "transactionType": "CALL",
      "contractName": "MockERC20",
      "contractAddress": "0x9FA2E4aC8e4058dEE89bf70CDeB755eE1176A59b",
      "function": "mint(address,uint256)",
      "arguments": [
        "0x0000000000000000000000000000000000000009",
        "1000000000000000000"
      ],
      "transaction": {
        "type": "0x02",
        "from": "0x31b056ce60875842bb2fe3c3dc1bc9685d518cde",
        "to": "0x9fa2e4ac8e4058dee89bf70cdeb755ee1176a59b",
        "gas": "0x1121e",
        "value": "0x0",
        "data": "0x40c10f1900000000000000000000000000000000000000000000000000000000000000090000000000000000000000000000000000000000000000000de0b6b3a7640000",
        "nonce": "0x16",
        "accessList": []
      },
      "additionalContracts": []
    },
    {
      "hash": "0xd2f86985511dbad26fcd48bf7caaf204f304215d4399ea00f5c4eea0bb8ea8ef",
      "transactionType": "CALL",
      "contractName": "MockERC20",
      "contractAddress": "0x9FA2E4aC8e4058dEE89bf70CDeB755eE1176A59b",
      "function": "forceApprove(address,address)",
      "arguments": [
        "0x0000000000000000000000000000000000000009",
        "0x78aad82bAD32B755FA56B5F9822BE10e4809CfCb"
      ],
      "transaction": {
        "type": "0x02",
        "from": "0x31b056ce60875842bb2fe3c3dc1bc9685d518cde",
        "to": "0x9fa2e4ac8e4058dee89bf70cdeb755ee1176a59b",
        "gas": "0x10743",
        "value": "0x0",
        "data": "0x6545964f000000000000000000000000000000000000000000000000000000000000000900000000000000000000000078aad82bad32b755fa56b5f9822be10e4809cfcb",
        "nonce": "0x17",
        "accessList": []
      },
      "additionalContracts": []
    }
  ],
  "receipts": [
    {
      "transactionHash": "0xdf0f934699a1445c516d01b83187f0108f8d91c92e169a4fa56de68ce0e01f82",
      "transactionIndex": "0x0",
      "blockHash": "0x72cfcd70571954286f056536831ebf71c6f5339d45afc3dcd60b0433032484c1",
      "blockNumber": "0x18",
      "from": "0x31b056cE60875842bb2fE3C3DC1BC9685d518cde",
      "to": null,
      "cumulativeGasUsed": "0xb6f37",
      "gasUsed": "0xb6f37",
      "contractAddress": "0x9FA2E4aC8e4058dEE89bf70CDeB755eE1176A59b",
      "logs": [],
      "status": "0x1",
      "logsBloom": "0x00000000000000000000000000000000000000000000000000000000000000000000000000000000000000000000000000000000000000000000000000000000000000000000000000000000000000000000000000000000000000000000000000000000000000000000000000000000000000000000000000000000000000000000000000000000000000000000000000000000000000000000000000000000000000000000000000000000000000000000000000000000000000000000000000000000000000000000000000000000000000000000000000000000000000000000000000000000000000000000000000000000000000000000000000000000",
      "type": "0x2",
      "effectiveGasPrice": "0xb55681c2"
    },
    {
      "transactionHash": "0x05b28fa7de126f9e0cbc3ae795b94a12c55b9f8344b70a01e89e4ed3354b700f",
      "transactionIndex": "0x0",
      "blockHash": "0xb6ef7d8e6af06badceb50bec0cef97d1810b58ec5e9e37ecb5dd38604af6713b",
      "blockNumber": "0x19",
      "from": "0x31b056cE60875842bb2fE3C3DC1BC9685d518cde",
      "to": "0x9FA2E4aC8e4058dEE89bf70CDeB755eE1176A59b",
      "cumulativeGasUsed": "0x10941",
      "gasUsed": "0x10941",
      "contractAddress": null,
      "logs": [
        {
          "address": "0x9FA2E4aC8e4058dEE89bf70CDeB755eE1176A59b",
          "topics": [
            "0xddf252ad1be2c89b69c2b068fc378daa952ba7f163c4a11628f55a4df523b3ef",
            "0x0000000000000000000000000000000000000000000000000000000000000000",
            "0x0000000000000000000000000000000000000000000000000000000000000001"
          ],
          "data": "0x0000000000000000000000000000000000000000000000000de0b6b3a7640000",
          "blockHash": "0xb6ef7d8e6af06badceb50bec0cef97d1810b58ec5e9e37ecb5dd38604af6713b",
          "blockNumber": "0x19",
          "transactionHash": "0x05b28fa7de126f9e0cbc3ae795b94a12c55b9f8344b70a01e89e4ed3354b700f",
          "transactionIndex": "0x0",
          "logIndex": "0x0",
          "removed": false
        }
      ],
      "status": "0x1",
      "logsBloom": "0x00000000000000000000000000000000000000000000000000000000000000000000000000000000000000000000000000000000000000000000000000040000000000000000000000008008000000000000000000040000000000000000000000000000020000000000000000000800000000000000000000000010000000000000000000000000000000000000000000000000200000000000000000000000000000000000000000000000000000000000000000000000000000000000000000000002000000000000000000000000000000000000000000000000000060000000000000000000000000000040000000000000000000000000000000000000",
      "type": "0x2",
      "effectiveGasPrice": "0xb5100590"
    },
    {
      "transactionHash": "0x599eb6944910d6dc015264fa40c9c260e59b87088de0ed928fc7a178eecb4635",
      "transactionIndex": "0x0",
      "blockHash": "0xba2ee319765f9e05d03259a4c55c94289c35d312bb9d92c7fcc5c8ea748b6e22",
      "blockNumber": "0x1a",
      "from": "0x31b056cE60875842bb2fE3C3DC1BC9685d518cde",
      "to": "0x9FA2E4aC8e4058dEE89bf70CDeB755eE1176A59b",
      "cumulativeGasUsed": "0xb403",
      "gasUsed": "0xb403",
      "contractAddress": null,
      "logs": [
        {
          "address": "0x9FA2E4aC8e4058dEE89bf70CDeB755eE1176A59b",
          "topics": [
            "0x8c5be1e5ebec7d5bd14f71427d1e84f3dd0314c0f7b2291e5b200ac8c7c3b925",
            "0x0000000000000000000000000000000000000000000000000000000000000001",
            "0x00000000000000000000000078aad82bad32b755fa56b5f9822be10e4809cfcb"
          ],
          "data": "0xffffffffffffffffffffffffffffffffffffffffffffffffffffffffffffffff",
          "blockHash": "0xba2ee319765f9e05d03259a4c55c94289c35d312bb9d92c7fcc5c8ea748b6e22",
          "blockNumber": "0x1a",
          "transactionHash": "0x599eb6944910d6dc015264fa40c9c260e59b87088de0ed928fc7a178eecb4635",
          "transactionIndex": "0x0",
          "logIndex": "0x0",
          "removed": false
        }
      ],
      "status": "0x1",
      "logsBloom": "0x00000000000000000000000000000000040000000000000000000000000000000000000000000000000000000000000000000000000000000000000000240000000000000000000000008000000000000000008000040000000000000000000000000000000000000000000000000000000000000000000000000000000000000000000000000000000000000000000000000000200000000000000000000000020000000000000000000000000000000000000000000000000000000000000000000000000000000000000000000000000000000000000000000000000040000010000000000000000000000040000800000000000000000000000000000000",
      "type": "0x2",
      "effectiveGasPrice": "0xb4c8e4eb"
    },
    {
      "transactionHash": "0x0f1dd2a7daf6d08982cf493b2c530c5705a0c448059d49f4a6007c7aa13a877c",
      "transactionIndex": "0x1",
      "blockHash": "0xba2ee319765f9e05d03259a4c55c94289c35d312bb9d92c7fcc5c8ea748b6e22",
      "blockNumber": "0x1a",
      "from": "0x31b056cE60875842bb2fE3C3DC1BC9685d518cde",
      "to": "0x9FA2E4aC8e4058dEE89bf70CDeB755eE1176A59b",
      "cumulativeGasUsed": "0x17a78",
      "gasUsed": "0xc675",
      "contractAddress": null,
      "logs": [
        {
          "address": "0x9FA2E4aC8e4058dEE89bf70CDeB755eE1176A59b",
          "topics": [
            "0xddf252ad1be2c89b69c2b068fc378daa952ba7f163c4a11628f55a4df523b3ef",
            "0x0000000000000000000000000000000000000000000000000000000000000000",
            "0x0000000000000000000000000000000000000000000000000000000000000002"
          ],
          "data": "0x0000000000000000000000000000000000000000000000000de0b6b3a7640000",
          "blockHash": "0xba2ee319765f9e05d03259a4c55c94289c35d312bb9d92c7fcc5c8ea748b6e22",
          "blockNumber": "0x1a",
          "transactionHash": "0x0f1dd2a7daf6d08982cf493b2c530c5705a0c448059d49f4a6007c7aa13a877c",
          "transactionIndex": "0x1",
          "logIndex": "0x1",
          "removed": false
        }
      ],
      "status": "0x1",
      "logsBloom": "0x04000000000000000000000000000000000000000000000000000000000000000000000000000000000000000000000000000000000000000000000000000000000000000000000000008008000000000000000000000000000000000000000000000000020000000000000000000800000000000000000000000010000000000000000000000000000000000000000000000000200000000000000000000000000000000000000000000100000000000000000000000000000000000000000000000002000000000000000000000000000000000000000000000000000020000000000000000000000000000040000000000000008000000000000000000000",
      "type": "0x2",
      "effectiveGasPrice": "0xb4c8e4eb"
    },
    {
      "transactionHash": "0x9fc6e81fc4013982a072a2aa8315dee9b030b5f60359d7c5b828107c46ea9788",
      "transactionIndex": "0x2",
      "blockHash": "0xba2ee319765f9e05d03259a4c55c94289c35d312bb9d92c7fcc5c8ea748b6e22",
      "blockNumber": "0x1a",
      "from": "0x31b056cE60875842bb2fE3C3DC1BC9685d518cde",
      "to": "0x9FA2E4aC8e4058dEE89bf70CDeB755eE1176A59b",
      "cumulativeGasUsed": "0x22e7b",
      "gasUsed": "0xb403",
      "contractAddress": null,
      "logs": [
        {
          "address": "0x9FA2E4aC8e4058dEE89bf70CDeB755eE1176A59b",
          "topics": [
            "0x8c5be1e5ebec7d5bd14f71427d1e84f3dd0314c0f7b2291e5b200ac8c7c3b925",
            "0x0000000000000000000000000000000000000000000000000000000000000002",
            "0x00000000000000000000000078aad82bad32b755fa56b5f9822be10e4809cfcb"
          ],
          "data": "0xffffffffffffffffffffffffffffffffffffffffffffffffffffffffffffffff",
          "blockHash": "0xba2ee319765f9e05d03259a4c55c94289c35d312bb9d92c7fcc5c8ea748b6e22",
          "blockNumber": "0x1a",
          "transactionHash": "0x9fc6e81fc4013982a072a2aa8315dee9b030b5f60359d7c5b828107c46ea9788",
          "transactionIndex": "0x2",
          "logIndex": "0x2",
          "removed": false
        }
      ],
      "status": "0x1",
      "logsBloom": "0x04000000000000000000000000000000040000000000000000000000000000000000000000000000000000000000000000000000000000000000000000200000000000000000000000008000000000000000008000000000000000000000000000000000000000000000000000000000000000000000000000000000000000000000000000000000000000000000000000000000200000000000000000000000020000000000000000000100000000000000000000000000000000000000000000000000000000000000000000000000000000000000000000000000000000000010000000000000000000000040000800000000008000000000000000000000",
      "type": "0x2",
      "effectiveGasPrice": "0xb4c8e4eb"
    },
    {
      "transactionHash": "0xb2fff2ad4968260972f9c11d78a13b62fe4fc14cf152676ae3f41e7053c7e9c2",
      "transactionIndex": "0x0",
      "blockHash": "0xbdda2633687fb3380f47636dab773e7a923f28d244af954dfff7323a50131547",
      "blockNumber": "0x1b",
      "from": "0x31b056cE60875842bb2fE3C3DC1BC9685d518cde",
      "to": "0x9FA2E4aC8e4058dEE89bf70CDeB755eE1176A59b",
      "cumulativeGasUsed": "0xc675",
      "gasUsed": "0xc675",
      "contractAddress": null,
      "logs": [
        {
          "address": "0x9FA2E4aC8e4058dEE89bf70CDeB755eE1176A59b",
          "topics": [
            "0xddf252ad1be2c89b69c2b068fc378daa952ba7f163c4a11628f55a4df523b3ef",
            "0x0000000000000000000000000000000000000000000000000000000000000000",
            "0x0000000000000000000000000000000000000000000000000000000000000003"
          ],
          "data": "0x0000000000000000000000000000000000000000000000000de0b6b3a7640000",
          "blockHash": "0xbdda2633687fb3380f47636dab773e7a923f28d244af954dfff7323a50131547",
          "blockNumber": "0x1b",
          "transactionHash": "0xb2fff2ad4968260972f9c11d78a13b62fe4fc14cf152676ae3f41e7053c7e9c2",
          "transactionIndex": "0x0",
          "logIndex": "0x0",
          "removed": false
        }
      ],
      "status": "0x1",
      "logsBloom": "0x00000000000000000000000000000000000000000000000000000000000000000000000000000000000000000000000000000000020000000000000000000000000000000000000000008008000000000000000000000000000000000000000000000000020000000000000000000800000000000000000000000010000000000000000000000000000000000000000000000000200000000000000000000000000000000000000000000000000000000000000000800000000000000000400000000002000000000000000000000000000000000000000000000000000020000000000000000000000000000040000000000000000000000000000000000000",
      "type": "0x2",
      "effectiveGasPrice": "0xb48b5b6e"
    },
    {
      "transactionHash": "0x1dfdf860aac4e8b57c88912c134c29c48102fa437a67af05ead445d60f4ed816",
      "transactionIndex": "0x1",
      "blockHash": "0xbdda2633687fb3380f47636dab773e7a923f28d244af954dfff7323a50131547",
      "blockNumber": "0x1b",
      "from": "0x31b056cE60875842bb2fE3C3DC1BC9685d518cde",
      "to": "0x9FA2E4aC8e4058dEE89bf70CDeB755eE1176A59b",
      "cumulativeGasUsed": "0x17a78",
      "gasUsed": "0xb403",
      "contractAddress": null,
      "logs": [
        {
          "address": "0x9FA2E4aC8e4058dEE89bf70CDeB755eE1176A59b",
          "topics": [
            "0x8c5be1e5ebec7d5bd14f71427d1e84f3dd0314c0f7b2291e5b200ac8c7c3b925",
            "0x0000000000000000000000000000000000000000000000000000000000000003",
            "0x00000000000000000000000078aad82bad32b755fa56b5f9822be10e4809cfcb"
          ],
          "data": "0xffffffffffffffffffffffffffffffffffffffffffffffffffffffffffffffff",
          "blockHash": "0xbdda2633687fb3380f47636dab773e7a923f28d244af954dfff7323a50131547",
          "blockNumber": "0x1b",
          "transactionHash": "0x1dfdf860aac4e8b57c88912c134c29c48102fa437a67af05ead445d60f4ed816",
          "transactionIndex": "0x1",
          "logIndex": "0x1",
          "removed": false
        }
      ],
      "status": "0x1",
      "logsBloom": "0x00000000000000000000000000000000040000000000000000000000000000000000000000000000000000000000000000000000020000000000000000200000000000000000000000008000000000000000008000000000000000000000000000000000000000000000000000000000000000000000000000000000000000000000000000000000000000000000000000000000200000000000000000000000020000000000000000000000000000000000000000800000000000000000400000000000000000000000000000000000000000000000000000000000000000000010000000000000000000000040000800000000000000000000000000000000",
      "type": "0x2",
      "effectiveGasPrice": "0xb48b5b6e"
    },
    {
      "transactionHash": "0x69109e1e312db94d2d955aaad14f4e045faea5baa5358bbb85ab584cbd5d2bab",
      "transactionIndex": "0x2",
      "blockHash": "0xbdda2633687fb3380f47636dab773e7a923f28d244af954dfff7323a50131547",
      "blockNumber": "0x1b",
      "from": "0x31b056cE60875842bb2fE3C3DC1BC9685d518cde",
      "to": "0x9FA2E4aC8e4058dEE89bf70CDeB755eE1176A59b",
      "cumulativeGasUsed": "0x240ed",
      "gasUsed": "0xc675",
      "contractAddress": null,
      "logs": [
        {
          "address": "0x9FA2E4aC8e4058dEE89bf70CDeB755eE1176A59b",
          "topics": [
            "0xddf252ad1be2c89b69c2b068fc378daa952ba7f163c4a11628f55a4df523b3ef",
            "0x0000000000000000000000000000000000000000000000000000000000000000",
            "0x0000000000000000000000000000000000000000000000000000000000000004"
          ],
          "data": "0x0000000000000000000000000000000000000000000000000de0b6b3a7640000",
          "blockHash": "0xbdda2633687fb3380f47636dab773e7a923f28d244af954dfff7323a50131547",
          "blockNumber": "0x1b",
          "transactionHash": "0x69109e1e312db94d2d955aaad14f4e045faea5baa5358bbb85ab584cbd5d2bab",
          "transactionIndex": "0x2",
          "logIndex": "0x2",
          "removed": false
        }
      ],
      "status": "0x1",
      "logsBloom": "0x00000000000000000000000000000000000000000000000000000000000000000000000000000000000000000000000000000000000000000000000000000000000000000000000000008008000000000000000000000000000000000000000008000000020000000000000000000800000000000000000000000010000000000000000000000000000000000000000000000000200000000000000000000000000000000000000000000000000000000000000000000000002000000000000000000002000000000000000000000000000000008000000000000000000020000000000000000000000000000040000000000000000000000000000000000000",
      "type": "0x2",
      "effectiveGasPrice": "0xb48b5b6e"
    },
    {
      "transactionHash": "0xa2190f33be8bdc790324d1d499bd5a3ca1bad143e36e8dbc30224546cab07980",
      "transactionIndex": "0x0",
      "blockHash": "0x2e020cf2c3abc0cb9ee5d880e01dbb2d5554874683338f1eb49c363c2bfaecaf",
      "blockNumber": "0x1c",
      "from": "0x31b056cE60875842bb2fE3C3DC1BC9685d518cde",
      "to": "0x9FA2E4aC8e4058dEE89bf70CDeB755eE1176A59b",
      "cumulativeGasUsed": "0xb403",
      "gasUsed": "0xb403",
      "contractAddress": null,
      "logs": [
        {
          "address": "0x9FA2E4aC8e4058dEE89bf70CDeB755eE1176A59b",
          "topics": [
            "0x8c5be1e5ebec7d5bd14f71427d1e84f3dd0314c0f7b2291e5b200ac8c7c3b925",
            "0x0000000000000000000000000000000000000000000000000000000000000004",
            "0x00000000000000000000000078aad82bad32b755fa56b5f9822be10e4809cfcb"
          ],
          "data": "0xffffffffffffffffffffffffffffffffffffffffffffffffffffffffffffffff",
          "blockHash": "0x2e020cf2c3abc0cb9ee5d880e01dbb2d5554874683338f1eb49c363c2bfaecaf",
          "blockNumber": "0x1c",
          "transactionHash": "0xa2190f33be8bdc790324d1d499bd5a3ca1bad143e36e8dbc30224546cab07980",
          "transactionIndex": "0x0",
          "logIndex": "0x0",
          "removed": false
        }
      ],
      "status": "0x1",
      "logsBloom": "0x00000000000000000000000000000000040000000000000000000000000000000000000000000000000000000000000000000000000000000000000000200000000000000000000000008000000000000000008000000000000000000000000008000000000000000000000000000000000000000000000000000000000000000000000000000000000000000000000000000000200000000000000000000000020000000000000000000000000000000000000000000000002000000000000000000000000000000000000000000000000000008000000000000000000000000010000000000000000000000040000800000000000000000000000000000000",
      "type": "0x2",
      "effectiveGasPrice": "0xb4555e65"
    },
    {
      "transactionHash": "0xd802e27b8a493e06353ced962b18c60b9218cc85b5ea6dacb23be1c8a8f72dee",
      "transactionIndex": "0x0",
      "blockHash": "0xaa2a9cdd3ba1e0df1d69ef9bea21be6d9a4336f9284a80eeb557229e44db9b26",
      "blockNumber": "0x1d",
      "from": "0x31b056cE60875842bb2fE3C3DC1BC9685d518cde",
      "to": "0x9FA2E4aC8e4058dEE89bf70CDeB755eE1176A59b",
      "cumulativeGasUsed": "0xc675",
      "gasUsed": "0xc675",
      "contractAddress": null,
      "logs": [
        {
          "address": "0x9FA2E4aC8e4058dEE89bf70CDeB755eE1176A59b",
          "topics": [
            "0xddf252ad1be2c89b69c2b068fc378daa952ba7f163c4a11628f55a4df523b3ef",
            "0x0000000000000000000000000000000000000000000000000000000000000000",
            "0x0000000000000000000000000000000000000000000000000000000000000005"
          ],
          "data": "0x0000000000000000000000000000000000000000000000000de0b6b3a7640000",
          "blockHash": "0xaa2a9cdd3ba1e0df1d69ef9bea21be6d9a4336f9284a80eeb557229e44db9b26",
          "blockNumber": "0x1d",
          "transactionHash": "0xd802e27b8a493e06353ced962b18c60b9218cc85b5ea6dacb23be1c8a8f72dee",
          "transactionIndex": "0x0",
          "logIndex": "0x0",
          "removed": false
        }
      ],
      "status": "0x1",
      "logsBloom": "0x00000000000000000000000000000000000000000000000000000000000000000000000000000000000000000000000000000000000000000000000000000000000010000000000000008008000000000000000000000000000000000000000000000000020000000000000000000800000000000000000000000010000000000000000000000000000000000000001000000800200000000000000000000000000000000000000000000000000000000000000000000000000000000000000000000002000000000000000000000000000000000000000000000000000020000000000000000000000000000040000000000000000000000000000000000000",
      "type": "0x2",
      "effectiveGasPrice": "0xb4251f6c"
    },
    {
      "transactionHash": "0x8a17f4ef264dbdf629883308f154bae62f1dd3e0b976ace325867f9c945c27a8",
      "transactionIndex": "0x1",
      "blockHash": "0xaa2a9cdd3ba1e0df1d69ef9bea21be6d9a4336f9284a80eeb557229e44db9b26",
      "blockNumber": "0x1d",
      "from": "0x31b056cE60875842bb2fE3C3DC1BC9685d518cde",
      "to": "0x9FA2E4aC8e4058dEE89bf70CDeB755eE1176A59b",
      "cumulativeGasUsed": "0x17a78",
      "gasUsed": "0xb403",
      "contractAddress": null,
      "logs": [
        {
          "address": "0x9FA2E4aC8e4058dEE89bf70CDeB755eE1176A59b",
          "topics": [
            "0x8c5be1e5ebec7d5bd14f71427d1e84f3dd0314c0f7b2291e5b200ac8c7c3b925",
            "0x0000000000000000000000000000000000000000000000000000000000000005",
            "0x00000000000000000000000078aad82bad32b755fa56b5f9822be10e4809cfcb"
          ],
          "data": "0xffffffffffffffffffffffffffffffffffffffffffffffffffffffffffffffff",
          "blockHash": "0xaa2a9cdd3ba1e0df1d69ef9bea21be6d9a4336f9284a80eeb557229e44db9b26",
          "blockNumber": "0x1d",
          "transactionHash": "0x8a17f4ef264dbdf629883308f154bae62f1dd3e0b976ace325867f9c945c27a8",
          "transactionIndex": "0x1",
          "logIndex": "0x1",
          "removed": false
        }
      ],
      "status": "0x1",
      "logsBloom": "0x00000000000000000000000000000000040000000000000000000000000000000000000000000000000000000000000000000000000000000000000000200000000010000000000000008000000000000000008000000000000000000000000000000000000000000000000000000000000000000000000000000000000000000000000000000000000000000000001000000800200000000000000000000000020000000000000000000000000000000000000000000000000000000000000000000000000000000000000000000000000000000000000000000000000000000010000000000000000000000040000800000000000000000000000000000000",
      "type": "0x2",
      "effectiveGasPrice": "0xb4251f6c"
    },
    {
      "transactionHash": "0x99e7bbab654d80f0c82335570e1d26e93d0802b65360ead8dba0557d3c523866",
      "transactionIndex": "0x2",
      "blockHash": "0xaa2a9cdd3ba1e0df1d69ef9bea21be6d9a4336f9284a80eeb557229e44db9b26",
      "blockNumber": "0x1d",
      "from": "0x31b056cE60875842bb2fE3C3DC1BC9685d518cde",
      "to": "0x9FA2E4aC8e4058dEE89bf70CDeB755eE1176A59b",
      "cumulativeGasUsed": "0x240ed",
      "gasUsed": "0xc675",
      "contractAddress": null,
      "logs": [
        {
          "address": "0x9FA2E4aC8e4058dEE89bf70CDeB755eE1176A59b",
          "topics": [
            "0xddf252ad1be2c89b69c2b068fc378daa952ba7f163c4a11628f55a4df523b3ef",
            "0x0000000000000000000000000000000000000000000000000000000000000000",
            "0x0000000000000000000000000000000000000000000000000000000000000006"
          ],
          "data": "0x0000000000000000000000000000000000000000000000000de0b6b3a7640000",
          "blockHash": "0xaa2a9cdd3ba1e0df1d69ef9bea21be6d9a4336f9284a80eeb557229e44db9b26",
          "blockNumber": "0x1d",
          "transactionHash": "0x99e7bbab654d80f0c82335570e1d26e93d0802b65360ead8dba0557d3c523866",
          "transactionIndex": "0x2",
          "logIndex": "0x2",
          "removed": false
        }
      ],
      "status": "0x1",
      "logsBloom": "0x00000000000000000000000000000000000000000000000000000000000000000000000000000000000000000000000000000000000400000000000000000000000000000000000000008008000000000000000000000000000000000000000000000000020000000000000000000800000000000000000000000010000000000000000400000000000000000000000000000000200000000000000000000000000000000000000000000000000000000000000000000000000000080000000000000002000000000000000000000000000000000000000000000000000020000000000000000000000000000040000000000000000000000000000000000000",
      "type": "0x2",
      "effectiveGasPrice": "0xb4251f6c"
    },
    {
      "transactionHash": "0x5f50831c39f5b8641bc76128be90803a0ba30bea7f01f9cd56728817d15c0acb",
      "transactionIndex": "0x3",
      "blockHash": "0xaa2a9cdd3ba1e0df1d69ef9bea21be6d9a4336f9284a80eeb557229e44db9b26",
      "blockNumber": "0x1d",
      "from": "0x31b056cE60875842bb2fE3C3DC1BC9685d518cde",
      "to": "0x9FA2E4aC8e4058dEE89bf70CDeB755eE1176A59b",
      "cumulativeGasUsed": "0x2f4f0",
      "gasUsed": "0xb403",
      "contractAddress": null,
      "logs": [
        {
          "address": "0x9FA2E4aC8e4058dEE89bf70CDeB755eE1176A59b",
          "topics": [
            "0x8c5be1e5ebec7d5bd14f71427d1e84f3dd0314c0f7b2291e5b200ac8c7c3b925",
            "0x0000000000000000000000000000000000000000000000000000000000000006",
            "0x00000000000000000000000078aad82bad32b755fa56b5f9822be10e4809cfcb"
          ],
          "data": "0xffffffffffffffffffffffffffffffffffffffffffffffffffffffffffffffff",
          "blockHash": "0xaa2a9cdd3ba1e0df1d69ef9bea21be6d9a4336f9284a80eeb557229e44db9b26",
          "blockNumber": "0x1d",
          "transactionHash": "0x5f50831c39f5b8641bc76128be90803a0ba30bea7f01f9cd56728817d15c0acb",
          "transactionIndex": "0x3",
          "logIndex": "0x3",
          "removed": false
        }
      ],
      "status": "0x1",
      "logsBloom": "0x00000000000000000000000000000000040000000000000000000000000000000000000000000000000000000000000000000000000400000000000000200000000000000000000000008000000000000000008000000000000000000000000000000000000000000000000000000000000000000000000000000000000000000000000400000000000000000000000000000000200000000000000000000000020000000000000000000000000000000000000000000000000000080000000000000000000000000000000000000000000000000000000000000000000000000010000000000000000000000040000800000000000000000000000000000000",
      "type": "0x2",
      "effectiveGasPrice": "0xb4251f6c"
    },
    {
      "transactionHash": "0x1a5d2f9026a522316b7cdb7a9ec0d6a565ab65c5138bf2a6082917cdb8c16fe5",
      "transactionIndex": "0x0",
      "blockHash": "0xffda73cdfda2cdd46007c231bd21649e5a9afc376cf532b83761a54397e717a6",
      "blockNumber": "0x1e",
      "from": "0x31b056cE60875842bb2fE3C3DC1BC9685d518cde",
      "to": "0x9FA2E4aC8e4058dEE89bf70CDeB755eE1176A59b",
      "cumulativeGasUsed": "0xc675",
      "gasUsed": "0xc675",
      "contractAddress": null,
      "logs": [
        {
          "address": "0x9FA2E4aC8e4058dEE89bf70CDeB755eE1176A59b",
          "topics": [
            "0xddf252ad1be2c89b69c2b068fc378daa952ba7f163c4a11628f55a4df523b3ef",
            "0x0000000000000000000000000000000000000000000000000000000000000000",
            "0x0000000000000000000000000000000000000000000000000000000000000007"
          ],
          "data": "0x0000000000000000000000000000000000000000000000000de0b6b3a7640000",
          "blockHash": "0xffda73cdfda2cdd46007c231bd21649e5a9afc376cf532b83761a54397e717a6",
          "blockNumber": "0x1e",
          "transactionHash": "0x1a5d2f9026a522316b7cdb7a9ec0d6a565ab65c5138bf2a6082917cdb8c16fe5",
          "transactionIndex": "0x0",
          "logIndex": "0x0",
          "removed": false
        }
      ],
      "status": "0x1",
      "logsBloom": "0x00000000000000000000000000000000000000000000000000000000000000000000000000000000000000000000000000001000000000000000000000000000000020000000000000008008000000000000000000000000000000000000000000000000020000000000000000000800000000000000000000000010000000000000000000000000000000000000000000000000200000000000000000000000000000000000000000000000000000000000000000000000000000000000000000000002000000000000000000000000000000000000000000000100000020000000000000000000000000000040000000000000000000000000000000000000",
      "type": "0x2",
      "effectiveGasPrice": "0xb3fbec77"
    },
    {
      "transactionHash": "0xa18b3401bfddb0e25d50962fa1d2430808f62c50602a63b1eb5983e9e32c7a4f",
      "transactionIndex": "0x1",
      "blockHash": "0xffda73cdfda2cdd46007c231bd21649e5a9afc376cf532b83761a54397e717a6",
      "blockNumber": "0x1e",
      "from": "0x31b056cE60875842bb2fE3C3DC1BC9685d518cde",
      "to": "0x9FA2E4aC8e4058dEE89bf70CDeB755eE1176A59b",
      "cumulativeGasUsed": "0x17a78",
      "gasUsed": "0xb403",
      "contractAddress": null,
      "logs": [
        {
          "address": "0x9FA2E4aC8e4058dEE89bf70CDeB755eE1176A59b",
          "topics": [
            "0x8c5be1e5ebec7d5bd14f71427d1e84f3dd0314c0f7b2291e5b200ac8c7c3b925",
            "0x0000000000000000000000000000000000000000000000000000000000000007",
            "0x00000000000000000000000078aad82bad32b755fa56b5f9822be10e4809cfcb"
          ],
          "data": "0xffffffffffffffffffffffffffffffffffffffffffffffffffffffffffffffff",
          "blockHash": "0xffda73cdfda2cdd46007c231bd21649e5a9afc376cf532b83761a54397e717a6",
          "blockNumber": "0x1e",
          "transactionHash": "0xa18b3401bfddb0e25d50962fa1d2430808f62c50602a63b1eb5983e9e32c7a4f",
          "transactionIndex": "0x1",
          "logIndex": "0x1",
          "removed": false
        }
      ],
      "status": "0x1",
      "logsBloom": "0x00000000000000000000000000000000040000000000000000000000000000000000000000000000000000000000000000001000000000000000000000200000000020000000000000008000000000000000008000000000000000000000000000000000000000000000000000000000000000000000000000000000000000000000000000000000000000000000000000000000200000000000000000000000020000000000000000000000000000000000000000000000000000000000000000000000000000000000000000000000000000000000000000000100000000000010000000000000000000000040000800000000000000000000000000000000",
      "type": "0x2",
      "effectiveGasPrice": "0xb3fbec77"
    },
    {
      "transactionHash": "0x1c5d1f5523ff85dfc51f9ae8c96af98713f486348004dd3cdfad14e8c1d1540b",
      "transactionIndex": "0x2",
      "blockHash": "0xffda73cdfda2cdd46007c231bd21649e5a9afc376cf532b83761a54397e717a6",
      "blockNumber": "0x1e",
      "from": "0x31b056cE60875842bb2fE3C3DC1BC9685d518cde",
      "to": "0x9FA2E4aC8e4058dEE89bf70CDeB755eE1176A59b",
      "cumulativeGasUsed": "0x240ed",
      "gasUsed": "0xc675",
      "contractAddress": null,
      "logs": [
        {
          "address": "0x9FA2E4aC8e4058dEE89bf70CDeB755eE1176A59b",
          "topics": [
            "0xddf252ad1be2c89b69c2b068fc378daa952ba7f163c4a11628f55a4df523b3ef",
            "0x0000000000000000000000000000000000000000000000000000000000000000",
            "0x0000000000000000000000000000000000000000000000000000000000000008"
          ],
          "data": "0x0000000000000000000000000000000000000000000000000de0b6b3a7640000",
          "blockHash": "0xffda73cdfda2cdd46007c231bd21649e5a9afc376cf532b83761a54397e717a6",
          "blockNumber": "0x1e",
          "transactionHash": "0x1c5d1f5523ff85dfc51f9ae8c96af98713f486348004dd3cdfad14e8c1d1540b",
          "transactionIndex": "0x2",
          "logIndex": "0x2",
          "removed": false
        }
      ],
      "status": "0x1",
      "logsBloom": "0x00000000000000000000000000000000000000000000000000000000000000000000000000000000000000000000000000000000000080000000000000000000000000000000000000008008000000000000000000000000000000000000000000000000020000000000000000000800000000000000000000000010000000000080000000000000000000000000000000000000200000000000000000000000000000000000000000000000000000000000000000000000000000000000000040000002000000000000000000000000000000000000000000000000000020000000000000000000000000000040000000000000000000000000000000000000",
      "type": "0x2",
      "effectiveGasPrice": "0xb3fbec77"
    },
    {
      "transactionHash": "0xa254a5f33553f3abbcca445b28547410529136ffa8105b5bca57fcd57223a339",
      "transactionIndex": "0x3",
      "blockHash": "0xffda73cdfda2cdd46007c231bd21649e5a9afc376cf532b83761a54397e717a6",
      "blockNumber": "0x1e",
      "from": "0x31b056cE60875842bb2fE3C3DC1BC9685d518cde",
      "to": "0x9FA2E4aC8e4058dEE89bf70CDeB755eE1176A59b",
      "cumulativeGasUsed": "0x2f4f0",
      "gasUsed": "0xb403",
      "contractAddress": null,
      "logs": [
        {
          "address": "0x9FA2E4aC8e4058dEE89bf70CDeB755eE1176A59b",
          "topics": [
            "0x8c5be1e5ebec7d5bd14f71427d1e84f3dd0314c0f7b2291e5b200ac8c7c3b925",
            "0x0000000000000000000000000000000000000000000000000000000000000008",
            "0x00000000000000000000000078aad82bad32b755fa56b5f9822be10e4809cfcb"
          ],
          "data": "0xffffffffffffffffffffffffffffffffffffffffffffffffffffffffffffffff",
          "blockHash": "0xffda73cdfda2cdd46007c231bd21649e5a9afc376cf532b83761a54397e717a6",
          "blockNumber": "0x1e",
          "transactionHash": "0xa254a5f33553f3abbcca445b28547410529136ffa8105b5bca57fcd57223a339",
          "transactionIndex": "0x3",
          "logIndex": "0x3",
          "removed": false
        }
      ],
      "status": "0x1",
      "logsBloom": "0x00000000000000000000000000000000040000000000000000000000000000000000000000000000000000000000000000000000000080000000000000200000000000000000000000008000000000000000008000000000000000000000000000000000000000000000000000000000000000000000000000000000000000000080000000000000000000000000000000000000200000000000000000000000020000000000000000000000000000000000000000000000000000000000000040000000000000000000000000000000000000000000000000000000000000000010000000000000000000000040000800000000000000000000000000000000",
      "type": "0x2",
      "effectiveGasPrice": "0xb3fbec77"
    },
    {
      "transactionHash": "0xc7bf48e4d9ae0920abdd3607791100849fa9a59151034c4051602346917fc85d",
      "transactionIndex": "0x4",
      "blockHash": "0xffda73cdfda2cdd46007c231bd21649e5a9afc376cf532b83761a54397e717a6",
      "blockNumber": "0x1e",
      "from": "0x31b056cE60875842bb2fE3C3DC1BC9685d518cde",
      "to": "0x9FA2E4aC8e4058dEE89bf70CDeB755eE1176A59b",
      "cumulativeGasUsed": "0x3bb65",
      "gasUsed": "0xc675",
      "contractAddress": null,
      "logs": [
        {
          "address": "0x9FA2E4aC8e4058dEE89bf70CDeB755eE1176A59b",
          "topics": [
            "0xddf252ad1be2c89b69c2b068fc378daa952ba7f163c4a11628f55a4df523b3ef",
            "0x0000000000000000000000000000000000000000000000000000000000000000",
            "0x0000000000000000000000000000000000000000000000000000000000000009"
          ],
          "data": "0x0000000000000000000000000000000000000000000000000de0b6b3a7640000",
          "blockHash": "0xffda73cdfda2cdd46007c231bd21649e5a9afc376cf532b83761a54397e717a6",
          "blockNumber": "0x1e",
          "transactionHash": "0xc7bf48e4d9ae0920abdd3607791100849fa9a59151034c4051602346917fc85d",
          "transactionIndex": "0x4",
          "logIndex": "0x4",
          "removed": false
        }
      ],
      "status": "0x1",
      "logsBloom": "0x00000000000000000000000000000000000000000000000000000000000000000000000000000000000000000000000000000000000000000000000000200000000000000000000000008008000000000000000000000000000000000000000000000000020000000000000000000800000000000000000000000010000000000000000000000000000000000000000000001000200000000000000000000000000000000000000000000000000000000000000000000000000000000000000000000002000000000000000000000000000000000000000000000000000020000000000000000000000000000040000000000000000000000000000000800000",
      "type": "0x2",
      "effectiveGasPrice": "0xb3fbec77"
    },
    {
      "transactionHash": "0xd2f86985511dbad26fcd48bf7caaf204f304215d4399ea00f5c4eea0bb8ea8ef",
      "transactionIndex": "0x0",
      "blockHash": "0x46488e5b380e395310f54c0bd7d0562ed0eaae0ab5ce5b29199a41102caf2148",
      "blockNumber": "0x1f",
      "from": "0x31b056cE60875842bb2fE3C3DC1BC9685d518cde",
      "to": "0x9FA2E4aC8e4058dEE89bf70CDeB755eE1176A59b",
      "cumulativeGasUsed": "0xb403",
      "gasUsed": "0xb403",
      "contractAddress": null,
      "logs": [
        {
          "address": "0x9FA2E4aC8e4058dEE89bf70CDeB755eE1176A59b",
          "topics": [
            "0x8c5be1e5ebec7d5bd14f71427d1e84f3dd0314c0f7b2291e5b200ac8c7c3b925",
            "0x0000000000000000000000000000000000000000000000000000000000000009",
            "0x00000000000000000000000078aad82bad32b755fa56b5f9822be10e4809cfcb"
          ],
          "data": "0xffffffffffffffffffffffffffffffffffffffffffffffffffffffffffffffff",
          "blockHash": "0x46488e5b380e395310f54c0bd7d0562ed0eaae0ab5ce5b29199a41102caf2148",
          "blockNumber": "0x1f",
          "transactionHash": "0xd2f86985511dbad26fcd48bf7caaf204f304215d4399ea00f5c4eea0bb8ea8ef",
          "transactionIndex": "0x0",
          "logIndex": "0x0",
          "removed": false
        }
      ],
      "status": "0x1",
      "logsBloom": "0x00000000000000000000000000000000040000000000000000000000000000000000000000000000000000000000000000000000000000000000000000200000000000000000000000008000000000000000008000000000000000000000000000000000000000000000000000000000000000000000000000000000000000000000000000000000000000000000000000001000200000000000000000000000020000000000000000000000000000000000000000000000000000000000000000000000000000000000000000000000000000000000000000000000000000000010000000000000000000000040000800000000000000000000000000800000",
      "type": "0x2",
      "effectiveGasPrice": "0xb3d806a2"
    }
  ],
  "libraries": [],
  "pending": [],
  "path": "/home/toda/dev/misc/noncustodial-flash-loans/broadcast/Approvals.s.sol/1337/run-latest.json",
  "returns": {},
  "timestamp": 1666805641,
  "commit": "6276ce2"
}